:400000000010002011000000A1020000A102000008B500F0ABFB00F045F9000010B572B680220021D2002F4800F003FE8023DA0000212D4800F0FDFD2C4CEE2001022160C7
:400040002B4BD8202B4C010199221A6021602A4B2A49022231202A4C1A6008609923294922601804284C0860237806201A4322702278802302432270244CDA022168244881
:400080000A43244922600078234B09781A78172A05D9224A58789978033B9342F6D1204B204A18602048016019211160052000F033FC1E4B1E4918780860052000F062FD84
:4000C00022681C4B1C48134023608021102404600B061A4A1A4C1B481B4913602360086010BDC04600300F4000400F400C0001401000014008030440000404400804044036
:400100001804044030500F4000700F4000010B40CCF1FF0FCDF1FF0FC9F1FF0FBDF1FF0F1CFF0B402CFF0B4020FF0B40E5F1FF0F28FF0B40FFFFFBFF0802024008010B4036
:4001400004010B40CF0000800000024010B5064C2378002B07D10548002802D0044800E000BF0121217010BDF0000020000000004C0C000008B5084B002B03D00748084921
:4001800000E000BF07480168002903D0064A002A00D0904708BDC046000000004C0C0000F4000020D00000200000000008B500F0ADFAFEE708B500F003FB00F01DFB00F0C8
:4001C00045FB08BD70B5054B0D1C161C0024C9B21C8000F02FFB3580201C70BD0C010020F0B50A275F4387B002900591161C00252A4CBD4219DA00F0F7FA80B22080238896
:40020000002B0CD00220278800F0A6FC00F0ECFA81B221802288BA42F4D8002706E00120013500F099FCADB2E2E7052700253580208800282FD02388308801930199421867
:40024000059993B233808B4221D201982A1893B2049304998D4209D002994819039000F0BDFA039A01351070ADB2F2E772B62088019A831A99B2218062B602984219013A2F
:400280001378172BD4D0052000F066FCD0E7308000F0B2FA0527381C07B0F0BD0C01002000B5FEE770B50F490F4A01394B1C14D0506895681468031C1E1AAE4202D040CCF7
:4002C00040C3F9E7D0681D1C5C1B844202D0002640C3F9E710320139E8E700F07BFCFFF765FFFEE7010000007C0C000008B500239A00032B02D80D48815800E00C490D48DE
:4003000001338150302BF3D1FFF788FE0A490B4B086800221A60002800D108608022D305186801210843186008BDC04600000000A102000000000020C0000020C8000020D2
:400340000047000038B5041C013806280BD800F037FC2406260F11080400174820E0174B09E0174B07E0002000F0E8FB002302E0144B00E0144B5A78187800021043022CD2
:4003800004D0032C07D0012C15D104E0040A0302234398B20FE000BA0DE00C4800E00C48C578817842780378180628430D02284311040843E3E738BDD87F0000C57F000063
:4003C000D47F0000D27F0000D67F0000C17F0000C97F000038B50220FFF7B4FF051C0320FFF7B0FF6C1CE1010C180220FFF7AAFF0023421CD201191CA24209D21078451E59
:40040000EDB2FD2D00D80121C318DBB20132F3E705485B420578DCB2AC4201D0062002E00029FBD0002038BDC07F0000F0B5AD4CA5440190FFF7BEFE62B600240A260394B3
:400440000296251C019B002B00D1FF2326AF05AE9621321C381C4900FFF7C2FE019A002A03D0029B013BD9B20291029A002A02D00028E7D102E0002800D094E03288062ACA
:4004800000D81FE13878042301285DD1FE78B97836020E43BF19787939798446F01D904200D911E1BA79172A4ED1F3189BB20022002B09D0BCAFF8188B4F013BC01907781D
:4004C0009BB2D21992B2F3E767465242380297B201430823B94237D16EE0342900D098E0012C00D0EEE0032E00D0EBE071A80021802200F09EFB802571A948192639FF39CA
:40050000F21EAC1900F08CFBA1B2832900D0D4E0B879039B7F7905023D43002B0AD1191C802206A800F085FBFF2006A900F01AFA01220392281C71A900F014FA0124002870
:4005400000D1BDE000250A23002126AF6E467B706B469A33F182012000220E1D19705A703870B3B2604FBCAEF018C0190778013BD2199BB292B2002BF4D173185B4E504280
:400580009F1982B25A483A705A4F1E18120A3270DB19172007316A46187089B226A816329623FFF70FFE0199002900D14DE7012C00D092E0012445E726AF79783B79081C98
:4005C00031380A2801D90523BEE700F0EFFA0610FC8627FC2A3A86486C00012C72D1002E70D1FFF7F7FE434243413B7158E0012C68D1012E66D1002B64D13F4E31680888EE
:40060000FF21C209160AB9713A717E71FB7104219BE7012C56D1022E54D96DE7012C51D154E0012C4ED19620AF1943009F424BD871AA501927A9321C00F0F2FABDB200232F
:4006400082E7002E3ED106AB2C4A191C90CA90C127AF11CB11C708210124331C75E7012C30D1032E2ED1B8797A79000210431F02C119CF01002280210139CE5D9219D2B251
:400680000029F9D1002B08D1FF2806D11C4B1D4918780E78171ABA1BD2B2504226AB18710023012151E7FFF795FE002802D1164B80261E6000F044FA04E00124002503E027
:4006C000051CBCE704233FE703233DE7019E0025002E00D06EE7019DB7E6BD25AD00AD44F0BDC0460CFDFFFFA7FDFFFFACFDFFFFADFDFFFFAEFDFFFFD4000020500C000029
:40070000D07F0000D17F0000C0000020154810B50368002219680B1C013BBF2B03D01C781219D2B2F8E740680478A21AD3B2A34201D1002902D1002000F000FAFFF74AFE68
:40074000094C2168402901D0002803D000202060FFF76CFE1420FFF769FE8020206000F0EFF910BDD4000020C000002008B50B4B10201A680A49024000D10A600B68802B89
:400780000BD1002201200A60FFF7DCFD002804D00120FFF7D7FDFFF7D3FD08BD00030B40C000002008B5054B802219681006084318600A2000F0AEF908BDC0460000064066
:4007C00010B5054C2378002B03D100F04FF801202070FFF7E7FF10BD10010020014B18687047C04640030640024B0F21186808407047C04608030640054B8022196850025D
:40080000084318601968034A0A401A607047C04604030640FFFFFEFF00B5044B0F211A6811400829F9D0024B186000BD080206404002064038B5041C4518AC4204D020783F
:40084000FFF7EAFF0134F8E738BD0000054B802219685002084318601968034A0A401A607047C04604020640FFFFFEFF174A184B184810B5184900241A6004600122174BA1
:4008800017480A6017490360072008601649174804600A60164A0A201360164B1C6000F043F90A20032100F015F913490A2000F005F9124812490460124A0C60124B134832
:4008C000134914601C6004600C6010BD0B00000200000640400006404800064007000080000306400403064044000640100306400002064004020640990B0000880E064094
:40090000C80E0640480F0640080F0640C80F0640880F0640000000000230800804D0C0460138FDD1C046C0467047EFF3108072B6704780F310887047094A10B51368002083
:40094000141C1A0F11070A2A08D0002806D1F0221206914200D1181C2368F2E710BDC04608000040F0B5071CABB00124FF2800D995E0002900D192E0002508ACB623D720A8
:400980007F2223706070A5700AA8E5706260802200F046F92E1C291C2A1C0195B31C98002558002D02D05219294301960136202EF4D1002A02D1002968D100E0002100918D
:4009C0000291384D384E2C60384C34603268002AFCDB2B68FFF7B0FF041E60D1FFF7A5FF334B05901968B6200491D8226946BFB2087603974A7668460C210A5A294F428388
:400A00002C49294A06A8386011601F1C3368002BFCDB2B68A02001068B4201D0002B2ED1009A002A2CD0002180220AA800F001F9019B029902331D4A08AC980001512C6001
:400A400032603468002CFCDB2B68FFF775FF041E16D107ABB6201870D92168460C225970115A10485980144A03600F4B1A6031680029FCDB2B68A0252E06B34200D01C1C3D
:400A8000049838600598FFF754FF08E0019E01250236B300E05800950290E25091E7201C2BB0F0BD08000040040000400400008008010B40050000800600008000B51F284C
:400AC00000D901BE024A800083181868196000BD4000002038B5041C0D1E032D00D901BE1F2C00D901BEFFF720FFA308084A99008B1803221440944019680634A2409143F2
:400B0000A5400C1C2C431C60FFF713FF38BDC04600E400E01F231840024A0121814011607047C04600E100E01F231840024A0121814011607047C04680E100E001BE704790
:400B4000034B04491A6890B2084318607047C0460CED00E00400FA0510B5041C8022074B1002844205D91868FFF7D6FE04496418F4E758686043FFF7CFFE10BDDC0000204E
:400B80000080FFFF08B5034B197A4843FFF7C4FE08BDC046DC00002008B5034B1868002800D0804708BDC0461401002002B4714649084900095649008E4402BC7047C046C9
:400BC00002B4714649084900095C49008E4402BC7047C04670B50E4B0E4D0024E81A85101E1CAC4204D0A100725890470134F8E700F032F80849094A0E1C541AA5100024DE
:400C0000AC4204D0A300F05880470134F8E770BD640C0000640C0000640C00006C0C000010B50023934203D0CC5CC4540133F9E710BD00B58218031C934202D019700133B4
:400C4000FAE700BDB00C0000A5000000000000009311160411140101F8B5C046F8BC08BC9E46704775010000ED020000F8B5C046F8BC08BC9E4670474D010000900C0000B5
:400C8000D000002020000000280000000000000000000000440C0000480C00000000E02EC05D00001800000000366E01000000000000000000000000000000000000000070
:400CC00000000000000000000000000000000000000000000000000000000000000000000000000000000000000000000000000000000000000000000000000000000000F4
:400D000000000000000000000000000000000000000000000000000000000000000000000000000000000000000000000000000000000000000000000000000000000000B3
:400D40000000000000000000000000000000000000000000000000000000000000000000000000000000000000000000000000000000000000000000000000000000000073
:400D80000000000000000000000000000000000000000000000000000000000000000000000000000000000000000000000000000000000000000000000000000000000033
:407FC0000000000000000000000000000000000000000000010000000000000000000000000000000000000000000000000000000000000000000000000000000000000080
:0200000490303A
:020000003FB50A
:0200000490402A
:200000000000000000000000000000000000000000000000000000000000000000000000E0
:0200000490501A
:0C0000000002041611931101041A51486B
:0200000490600A
:0100000001FE
:00000001FF