:400000000010002011000000C9040000C904000080B500AF00F0A0FB00F05AFA80B584B000AF021CFB1D1A70224A3B1C0B3312781A70214A3B1C0A3312781A701F4B1B6845
:40004000013BFB601AE01E4B1868391C0B31FA68131C5B009B18C31801331B780B70184B1868391C0A31FA68131C5B009B18C31802331B780B70FB68013BFB60FB68002B01
:400080000ADB0F4B1968FA68131C5B009B185B5CFA1D12789A42D6D90A4B3A1C0B3212781A60094B3A1C0A3212781A60BD4604B080BDC046CCF1FF0FCDF1FF0F241A000059
:4000C000D40000201CFF0B4020FF0B4080B500AF164B164A12688021C9020A431A601820FFF79CFF124B19221A60052001F088F9104B114A1278D2B21A60052001F02CFCFC
:400100000A4B0A4A11680D4A0A401A600C4B10221A600C4B802212061A600B4B802212061A600A4B0A4A1A60BD4680BD00010B402CFF0B4028FF0B40E5F1FF0FFFFFFBFFF7
:400140000802024008010B4004010B4000000240CF00008080B582B000AF72B6FB1D00221A7023E0FB1D1A78131C5B009B185B002D4A9B183B603B681A78597809020A4394
:40018000997809040A43DB781B0613431A1C3B6819795B791B020B439BB2101C191C00F023FAFB1DFA1D127801321A70FB1D1B78012BD7D91D4BEE2212021A601C4B992280
:4001C0001A601C4B40221A601B4BC02252031A601A4BD82212011A60194B02221A60194B31221A60184B02221A60184B992212041A60174B992212041A60164B154A127866
:40020000D2B202210A43D2B21A70124B114A1278D2B206210A43D2B21A70FFF757FF00F0F3F9BD4602B080BD181A00000C00014010000140000104400801044008030440A9
:4002400000040440080404401804044010500F4030500F4000700F4010B5064C2378002B07D10548002802D0044800E000BF0121217010BDF000002000000000141A0000A4
:4002800008B5084B002B03D00748084900E000BF07480168002903D0064A002A00D0904708BDC04600000000141A0000F4000020D00000200000000080B500AF00F0F6F95C
:4002C000FEE7C04680B500AF00F0A0FF00F0D8FF01F01CF8BD4680BD80B586B000AFF8607A601A1C3B1C0A3319803B1C09331A7005237B613B1C13333A1C093212781A7082
:400300003B1C13333A1C133212780A321A700C4B00221A803B1C0A331B88DBB2FA68101C191C00F0D9FF7B683A1C0A3212881A8000237B617B69181CBD4606B080BDC04617
:400340000C01002090B589B000AFF8607A601A1C3B1C0A3319803B1C09331A700523BB613B1C1E3300221A802DE000F079FF031C9AB2544B1A80534B1B889BB2002B18D00F
:400380003B1C16334F4A12881A80022001F0C0FA00F066FF031C9AB24A4B1A80494B1B889BB23A1C163212889A42E9D30023BB6115E0012001F0ACFA3B1C1E333A1C1E3286
:4003C000128801321A803B1C1E3319883B1C09331A78131C9B009B185B009942C5DB7B6800221A803B1C1C3300221A8060E03B1C1433344A12881A807B681A883B1C143321
:400400001B88D3189AB27B681A807B681B883A1C0A3212889A423DD93B1C1E3300221A8017E03B1C1C331B88FA68D41800F008FF031CDBB223703B1C1C333A1C1C321288B5
:4004400001321A803B1C1E333A1C1E32128801321A803A1C1E323B1C143312881B889A42DFD372B6174B1B889AB23B1C14331B88D31A9AB2134B1A8062B63B1C1C331B889F
:40048000013BFA68D3181B78172B11D0052001F03FFA0DE07B681A883B1C14331B88D31A9AB27B681A8000F0EBFE0523BB6104E0044B1B889BB2002B99D1BB69181CBD4615
:4004C00009B090BD0C01002080B500AFFEE7C04680B586B000AF254B7B61254B3B61234B7B61234B3B6132E03B691B68FB603B695B68BB603B699B683B6000237B600CE0F2
:40050000FB681A68BB681A60BB680433BB60FB680433FB607B6804337B607A683B689A42EED13B69DB683B6000237B6008E0BB6800221A60BB680433BB607B6804337B6029
:400540007A683B689A42F2D13B6910333B617B695A1E9341DBB27A69013A7A61002BC3D101F01CFAFFF7A8FEFEE7C04601000000A01A000080B582B000AF00237B600FE013
:400580007B68032B04D8134B7A689200D35800E0114B124A796889008B507B6801337B607B682F2BECD9FFF7D5FD0D4B00221A600C4B1B68002B02D10A4B00221A60802358
:4005C000DB058022D205126801210A431A60BD4602B080BD00000000C904000000000020C8000020C000002080B582B000AF786039607A683B68101C00211A1C01F0FDF922
:40060000BD4602B080BDC04680B500AFBD4680BD80B584B000AF78600A1CBB1C1A803B1C0E3300221A8012E0BB1C1B88013B7A68D3181B78191C3B1C0E333A1C0E321288BE
:400640008A181A80BB1CBA1C1288013A1A80BB1C1B88002BE8D13B1C0E331B885B429BB2181CBD4604B080BD80B584B000AF786039603B1C0F3300221A700DE03B68013BDD
:400680003B607A683B68D31819783B1C0F333A1C0F3212788A181A703B68002BEED13B1C0F331B78181CBD4604B080BD90B583B000AF204B1B681B68C03BFC1DC020191C16
:4006C000FFF7D2FF031C23701B4B1B681A78FB1DF91D09788A1A1A70FB1DFA1D127852421A70154B1B681B78FA1D12789A4204D1104B1B681B68002B02D1002001F0EEF834
:40070000002000F051F8031C3B600C4B1B68402B02D03B68002B05D0084B00221A60002000F0B6F8142000F0B3F800F009F8BD4603B090BDDC000020D8000020C0000020A8
:4007400080B500AF034B80221A6001F0D1F8BD4680BDC046C000002080B500AF0F4B1A681023134002D10E4B00221A600C4B1B68802B11D10A4B00221A600120002100F0B3
:4007800055FC031C002B07D00120002100F04EFC031C181C00F006F8BD4680BD00030B40C00000200047C04690B587B000AF021CFB1D1A70FB1D1B780220191C00F036FC40
:4007C000031C0133DC01FB1D1B780320191C00F02DFC031CE318FB603B1C133300221A703B1C123300221A70FB1D1B780220191C00F01CFC031C0133DB017B611FE07A69B0
:400800003B1C0B3312781A703B1C0B331B78002B08D03B1C0B331B78FF2B03D03B1C133301221A703B1C1233391C12313A1C0B32097812788A181A707B6901337B617A69A0
:40084000FB689A42DBD33B1C12333A1C1232127852421A70FB1D1A78131C5B069B1ADB010A4A9B181B78DBB23A1C123212789A4204D13B1C13331B78002B01D1062300E0B0
:400880000023181CBD4607B090BDC046C07F000090B5B54CA54400AF021CB44BC2208000C019C3181A70B2497B1800221A80C0229200BB1800221A80AE4C3B190A221A70A9
:4008C000AD483B1800221A70AC497B1800221A70FFF7F8FC62B6AA4ABB1800221A70A34BC224A400E419E3181B78002B06D09F4BC2208000C019C3181B7800E0FF23DE21C3
:4009000049007818962251009E4C3A19FFF71AFD031CBE208000C0190360944BC2218900C919CB181B78002B06D0924ABB18914C3A191278013A1A708E483B181B78002B19
:4009400005D0BE218900C9190B68002BC7D1BE229200D2191368002B00D0F3E2894C3B191B88062B07D9884BC2208000C019C3181B78012B04D082497B1804221A7062E0D1
:40098000814BC2229200D219D318DB781B0299B27D4BC224A400E419E3189B781A1C74483B180A431A8072497B181B880533764AC224A400E419A218D35C1B0299B26C4866
:4009C0003B181B880433704AC224A400E419A218D35C1A1C6D483B180A431A8064497B181B88DA1D674C3B191B889A4204D964483B1803221A7026E05D497B181B88063375
:400A0000614AC224A400E419A218D35C172B04D05B483B1804221A7015E055497B181B8804339BB2DE2464003A19101C191CFFF7EFFD031C55483A1812889A4203D05049A6
:400A40007B1808221A70524ABB1800221A804C4C3B191B78002B00D04DE24E483B184A4AC2218900C9198A1812791A70444ABB1804221A70444BC224A400E419E3185B78E4
:400A8000313B0A2B00D924E29A00434BD3181B689F463A483B181B78012B00D01EE234497B181B88002B00D018E20020FFF77CFE031C5A425341DBB21A1C334BC224A40085
:400AC000E419E3181A7132483B1801221A802C497B1800221A7001E2284ABB181B78012B00D0FDE1224C3B191B88012B00D0F7E128483B181B78002B00D0F1E1274B1B684F
:400B00001B689AB226497B18D2091A80244ABB181B88DAB21C4BC224A400E419E3181A711F483B181B881B0A9BB2DAB2164BC2218900C919CB185A71134BC2229200D21914
:400B4000D318FF229A71104BC224A400E419E3180022DA710E483B1804221A8008497B1800221A70BCE1C046F4FCFFFFFFFCFFFF02030000FF020000FE020000FD0200008C
:400B800005030000EA020000B4FEFFFFF602000006030000F5020000301A0000DC000020F2020000DB4BC2229200D219D3185B78342B1BD1D84C3B191B78012B00D09AE14D
:400BC000D6483B181B88032B00D094E1C02189007B1880221A80C0229200BB181B883A1C9032101C00211A1C00F007FFCA4C3B191B78012B00D075E1C8483B181B88022B38
:400C000000D86FE1C02189007B181B883A1C9032D118C24ABB181B88033BDE2464003A190732081C111C1A1C00F0DEFEC02080003A18BA497B1812881B88D3189AB2C02446
:400C4000A4003B19033A1A80B4483B1880221A80C02189007A18B14C3B1912881B889A423DD1AC4BC2208000C019C3189B791B0299B2A84BC2229200D219D3185B791A1CD4
:400C8000C024A4003B190A431A80A5483B181B78002B10D13B1C0833181C0021802200F0ACFE3B1C0833FF20191C00F03BFC9C497B1801221A70C0229200BB181A883B1CFD
:400CC0009033101C191C00F02DFC031C002B01D00A2300E00023934C3A19137003E091483B1803221A70C02189007B1800221A80F8E0894ABB181B78012B00D0F4E0C0247B
:400D0000A4003B1900221A801DE183483B181B78012B00D0EAE0C02189007B181A887F4C3B191B88D3181A1C96235B009A4223D87C483B1800221A70C02189007B181B88BA
:400D40003A1C9032D118754ABB181B88DE2464003A190432081C111C1A1C00F045FEC02080003B18C0229200B9186C4C3A19098812888A181A80B9E06A483B1803221A70DD
:400D8000B4E066497B181B88002B00D0B0E0664BC2229200D219D318644A11CA11C35E497B1801221A70624ABB1808221A80604C3B191B88DE2040003A18111D3A1C88323A
:400DC000081C111C1A1C00F00FFE56497B1800221A708DE0504ABB181B78012B00D089E04E4C3B191B88032B00D083E0494BC2208000C019C3189B791B0299B2454BC22233
:400E00009200D219D3185B791A1CBC24A4003B190A431A8047483B181B781A02BC2189007B181B88D318DB01BB229200D2191360BF239B00FC18BB208000C0190368181C5C
:400E40008021FFF711FC031C23703A497B181B78002B1DD1BC229200BB181B88FF2B17D1354B1B78DAB2BF24A4003B19BF208000391809788A1A1A70304B1B78DAB2BF210F
:400E800089007B18BF24A400391909788A1A1A70BF2080003B181B785B42DAB21D4BC2218900C919CB181A711E4ABB1800221A701F4C3B1901221A801CE00020FFF774FC17
:400EC000031C002B02D11E4B80221A6000F010FD11E014483B1805221A700CE0C0460AE0C04608E0C04606E0C04604E0C04602E0C04600E0C0460B497B181978DE235B00BA
:400F0000FA180B4C3B191B88081C111C1A1C00F033F818E0B4FEFFFFFD02000002030000FE0200000503000080FDFFFF281A000006030000F5020000D07F0000D17F00009F
:400F4000C0000020C0460A4BC2208000C019C3181B78002B00D1BEE406497B181B78012B00D1B8E4BD46C3239B009D4490BDC046FFFCFFFFFD02000090B585B000AF39606F
:400F8000FB1D011C19703B1D1A803B6801221A703B680133FA1D12781A703B6802333A1D1288D2B21A703B6803333A1D1288120A92B2D2B21A703B1D1B8804339BB23C1C49
:400FC0000E343A68101C191CFFF722FB031C23803B1D1B8804333A68D3183A1C0E321288D2B21A703B1D1B8805333A68D3183A1C0E321288120A92B2D2B21A703B1D1B8881
:4010000006333A68D31817221A703B1D1B8807339AB239683B1D081C111C1A1C9623FFF75BF9031C181CBD4605B090BD80B586B000AF0A1CFB1D011C1970BB1D1A703B1C14
:40104000133302221A70FB1D1B78072B56D89A005B4BD3181B689F46BB1D1A78131C5B069B1ADB01574A9B187B613B1C133304221A7049E0BB1D1A78131C5B069B1ADB0122
:40108000514A9B187B613FE0BB1D1A78131C5B069B1ADB014D4A9B187B613B1C133304221A7031E0BB1D1A78131C5B069B1ADB01474A9B187B6127E0BB1D1A78131C5B062C
:4010C0009B1ADB01434A9B187B613B1C133304221A7019E0BB1D1A78131C5B069B1ADB013D4A9B187B610FE0BB1D1A78131C5B069B1ADB01394A9B187B6105E0002000F0DB
:40110000EDFB00237B61C0463B1C13331B78022B0CD17B6901331B78DBB2FB607B691B78DBB21B02FA681343FB601BE07B6903331B78DBB2FB607B6902331B78DBB21B02DB
:40114000FA681343FB607B6901331B78DBB21B04FA681343FB607B691B78DBB21B06FA681343FB60FB1D1B78022B04D0032B0DD0012B0BD01DE0FB689BB21B029AB2FB6883
:401180001B0A9BB213439BB2FB6013E0FB681A0EF968FF231B040B401B0A1A43F968FF231B020B401B021A43FB681B061343FB6000E0C046FB68181CBD4606B080BDC046BF
:4011C0005C1A0000D87F0000D27F0000C17F0000C57F0000C97F0000D67F0000D47F000080B500AF00F0A8F8BD4680BD80B500AF054B054A1268802109060A431A6000F045
:4012000017F8BD4680BDC0460000064080B500AF064B1B78002B04D1FFF7E2FF034B01221A70FFF7E3FFBD4680BDC0461001002080B500AF0A2000F025FBBD4680BDC046C6
:4012400080B582B000AF00237B60044B1B687B607B68181CBD4602B080BDC0464003064080B582B000AF054B1A680F2313407B607B68181CBD4602B080BDC046080306406D
:4012800080B500AF074B074A1268802149020A431A60044B034A1168034A0A401A60BD4680BDC04604030640FFFFFEFF80B582B000AF7860C046064B1A680F231340082B47
:4012C000F9D0044B7A681A60BD4602B080BDC046080206404002064080B584B000AF786039600023FB6009E07A68FB68D3181B78181CFFF7DBFFFB680133FB60FA683B68FC
:401300009A42F1D3BD4604B080BDC04680B500AF074B074A1268802149020A431A60044B034A1168034A0A401A60BD4680BDC04604020640FFFFFEFF80B500AF1D4B1E4AF8
:401340001A601E4B00221A601D4B01221A601D4B1D4A1A601D4B07221A601D4B00221A601C4B01221A601C4B174A1A601B4B00221A600A2000F09CFA0A20032100F02EFA33
:40138000174B0A20191C00F003FA164B00221A60154B00221A60154B00221A60144B00221A60144B00221A60134B00221A60BD4680BDC046000006400B000002400006407B
:4013C000480006400003064007000080040306401003064044000640000206400402064081190000880E0640C80E0640480F0640080F0640C80F0640880F06400000000045
:401400000230800804D0C0460138FDD1C046C0467047EFF3108072B6704780F31088704780B582B000AF7860034B1A687B681A60BD4602B080BDC04608010B4080B582B06D
:4014400000AF7860034B7A6812681A60BD4602B080BDC04608010B4080B582B000AF786039600A4B3A681A60094B7A68802109060A431A60C046064B1B68002BFBDB034BA7
:401480001B68181CBD4602B080BDC046080000400400004080B584B000AF786039603B1C0C33B6221A703B68DBB22D3BDAB23B1C0C335A707B689AB23B1C0C335A803A68AB
:4014C0003B1C0C33101C191CFFF7C6FF031C181CBD4604B080BDC04680B582B000AF104B1B687B6000233B600BE07B681B0F1A07F0231B069A4201D17B683B60084B1B6811
:401500007B607B681B0F1A07A0231B069A4202D03B68002BE9D03B68181CBD4602B080BD0800004090B5B1B000AF786039600023BC20C01903600023A421C9190B6000231F
:40154000B822D21913600023B420C01903600023B021C9190B600023AC22D21913607B68FF2B00D909E13B68002B00D105E13B1C0C33B6221A703B1C0C33D7225A703B1C73
:401580000C3300229A707B681B0ADAB23B1C0C33DA703B1C0C337F225A603B1C0C331A1C08323B68101C191C802200F01DFA0023A820C019036030E03B1C0C33A821C91930
:4015C0000A6802329200D358A022D2191360A020C0190368002B19D0B021C9190A68A020C0190368D318B021C9190B60AC23DB191A68A020C01903681343AC21C9190B6065
:40160000A822D2191368B820C0190360A821C9190B680133A822D2191360A820C01903681F2BC9D9B021C9190B68002B06D1AC22D2191368002B01D0012300E00023A420B1
:40164000C0190360A421C9190B68002B13D03B1C0C33B820C019026802329200D358B421C9190B603B1C0C33B820C0190268023292000021D1503B1C0C330420191CFFF7A4
:40168000EBFEFFF729FF031CBC21C9190B60BC22D2191368002B74D13C1C9F34FFF7B9FE031C23703B1C9433181CFFF7B9FE7B68181C0521FFF7EEFE031C9820C01903606B
:4016C0009821C9190A68A0231B069A4205D09822D2191368BC20C0190360BC21C9190B68002B3ED1A422D2191368002B39D03B1C0C330833181C0021802200F07EF93B1CBE
:401700000C33B820C019026802329200B420C0190168D1503B1C0C330420191CFFF79CFEFFF7DAFE031CBC21C9190B60BC22D2191368002B15D17B68181C0621FFF7AAFE8B
:40174000031C9820C01903609821C9190A68A0231B069A4205D09822D2191368BC20C01903603B1C9433181CFFF768FE3B1C9F331B78181CFFF751FE03E00123BC21C919D3
:401780000B60BC22D2191368181CBD4631B090BD80B584B000AF021C3960FB1D1A7080239B05FB60FB1D1B781F2B02D9002000F095F8FB1D1B7810339B00FA68D3181B6840
:4017C000BB60FB1D1B7810339B00FA68D3183A681A60BB68181CBD4604B080BD90B587B000AF0A1CFB1D011C1970BB1D1A70BB1D1B78032B02D9002000F070F8FB1D1B7889
:401800001F2B02D9002000F069F8FB1D1A7803231340DB0006337B613C1C1334FFF7F9FD031C2370FB1D1B789B08DBB29B0014495B181B68FB607B690322111C99400B1C68
:40184000DA43FB681340FB60BB1D1A787B69111C99400B1CFA681343FB60FB1D1B789B08DBB29B00064A9B18FA681A603B1C13331B78181CFFF7D1FDBD4607B090BDC04622
:4018800000E400E080B582B000AF021CFB1D1A70064BFA1D11781F220A400121081C9040021C1A60BD4602B080BDC04600E100E080B582B000AF021CFB1D1A70064BFA1D6D
:4018C00011781F220A400121081C9040021C1A60BD4602B080BDC04680E100E080B582B000AF021CFB1D1A7001BEBD4602B080BD80B500AF044B044A12681204120C0349EB
:401900000A431A60BD4680BD0CED00E00400FA0580B582B000AF786008E00C4B1B68181CFFF76EFD7B680A4A9B187B607A6880231B029A42F1D8074B1B687A685343181CF2
:40194000FFF75EFDBD4602B080BDC046EC0000200080FFFFE400002080B582B000AF021CBB1D1A80BB1D1B88044A12785343181CFFF746FDBD4602B080BDC046E800002094
:4019800080B500AF044B1B68002B02D0024B1B689847BD4680BDC0461401002070B50E4B0E4D0024E81A85101E1CAC4204D0A100725890470134F8E700F060F80849094A78
:4019C0000E1C541AA5100024AC4204D0A300F05880470134F8E770BD881A0000881A0000881A0000901A000010B50023934203D0CC5CC4540133F9E710BD00B58218031C12
:401A0000934202D019700133FAE700BDDD000000D01A00000000000000300F40000400400F400004040000009311160411140101920A0000D80A0000D20E0000A40B0000D1
:401A4000F20C0000D20E00000A0D0000820D0000A40B0000D40D0000BA0E0000FC10000088100000A4100000B810000074100000D4100000E810000058100000F8B5C046EF
:401A8000F8BC08BC9E4670478102000075050000F8B5C046F8BC08BC9E46704759020000B01A0000D0000020200000002800000000000000C0F1FF0F0C1A0000101A0000E4
:401AC00000366E01C05D0000180000000000E02E000000000000000000000000000000000000000000000000000000000000000000000000000000000000000000000000FE
:401B000000100020111B0000915700009157000008B5024B83F3088803F03CFE00100020F8B572B6674B012280241A700021E2006548802504F0CDFD00216448EA0004F076
:401B4000C8FD0023191C624FFF22D8591C37061C96434A00C4B2351CBA18002C07D01778013C7E195778E4B237700232F5E7C0B2043309181C2BE6D1C023564D564F574EFA
:401B80009C022C60564837605649D824564F574E0F23250499220260554C0B60554A3D6055483360554D564B564E1621122702601960554A2C6055483760554B554C564E7B
:401BC00002210625312702601960544A256099203760534C534F03041560534E2360534A3B608020524F0406166052483C608026514CB2040260514E236051488023514C8B
:401C00009F050122504B3760026021601F788022394319701978D0020D431D704B4D4C4C2E684C4B3043286020784B4E19783778172F05D9494A7078B178033E9642F6D1D9
:401C4000474B484C484E1927206019600520376003F01AFE4548464A01780520116003F085FE2C68434B444F234044482B60212611253D60424A0660424B434F43482021E0
:401C800010243125302611601C6080213D60404A0660404B404D414F414E42480C06146041491C60414A3D60414B0660414D424F424E434C0120216013602B60376003F05A
:401CC000B7FDF8BD1C700F4000300F4000400F40E86600000800014099EE00000C00014010000140000004400800044018000440966C2300B66DDB0008010440080204402C
:401D00000002044000030440B19D0000080304401803044000040440080404401804044000500F4010500F400400990020500F4024500F4028500F4030500F4038500F4048
:401D40002000004000800F4000700F4000010B40CCF1FF0FCDF1FF0FC9F1FF0FBDF1FF0F20FF0B401CFF0B402CFF0B40E5F1FF0F28FF0B40FFFFFBFF080202400C020240DE
:401D80001402024018020240200202402402024008010B4004010B40FE00008000000240FE0000C0400002401700008004000240CF00008044000240BF5D008084000240EB
:401DC0008000024010B5064C2378002B07D10548002802D0044800E000BF0121217010BD0001002000000000E466000008B5084B002B03D00748084900E000BF074801684A
:401E0000002903D0064A002A00D0904708BDC04600000000E466000004010020D000002000000000F8B50C4D04262B68334211D00A4C4027E078B843E07004F087FAC0B2FB
:401E400002F00EFF04F082FA05490870E2781743E7702E60F8BDC046C00F0640F4020020CC010020F8B50A4D04262B6833420DD0084C2027E078B843E07004F0FBFAC0B215
:401E800002F06AFEE1780F43E7702E60F8BDC046C00F0740F402002008B5054B802219681006084318600B2003F02AFD08BDC0460000074010B5054C2378002B03D104F04D
:401EC00083FA01202070FFF7E7FF10BD1C01002008B5054B802219681006084318600A2003F00EFD08BDC0460000064010B5054C237A002B03D104F0D3F901202072FFF771
:401F0000E7FF10BD1C01002008B504F05DFAFFF7C3FFFFF7CFFF024A024B5A6008BDC046651E00001C01002008B504F0B9F9FFF7CFFFFFF7DBFF024A024BDA6008BDC046BA
:401F4000251E00001C010020FA2038B5800003F0F7FC02F03FFD62B602F0EAFC02F02EFD02F036FD00F0BEFE01F026FE294B00221A7001F051FC1F24274900250D55013486
:401F8000E4B2802CF8D1FFF7BFFFFFF7CDFF234C2022E0781043E070214803F02BF9214B21480121214A19800570214B1E251570187808210843187065783F222A406270CA
:401FC0001C4C1D4B2078AA2801D1012119701D78002D04D000251D7003F04AFCFCE702F0ADFC164A14883C2C05D915480378002B01D10121017000F08BFE00F01BFF02F00C
:40200000A3F900F0D3FE02F0DFFE642003F0AEFCD6E7C046BF0100206A030020F4020020C0CC00000803002018030020CD02002030030020ED010020C0010020A802002020
:40204000DA02002070B5051C18240020012604F069FA281C304004F071FA022003F086FC013C301C04F05EFAE4B2022003F07EFCF540002CE9D170BD10B501248440694BF6
:40208000221C0E2900D9B6E0081C04F099FA081B203043505761778DB4B4B4B49D00E1431C6858680C4008401C609C685860D8680C4008409C601C69D86058690C401C6117
:4020C000014057E0196821431960E44344E0E1435C6818680C405C60DC6808400C4018609868DC601C69104398600C400EE0E1431C6858680C401C609C6808400C40586039
:40210000D8689C601C690840D860144358691C6102436BE01968586821431960E1439C6808400C409C60DC685860144348E0E1431C6858680C401C6010433BE05868E14366
:4021400002431C685A609A680C401C600A4044E01868E443204018609968586820400C4058609C601869DC68596914431043DC6018611143596199690A4350E01968E243EB
:4021800011405C6898681960D9681440104011405C6098601C695869D9609969144010401C6158610A403AE0E1431C6858680C401C60084058609868DC68084098600C40E8
:4021C0001869DC6002430EE01868E14308405C681860986814435C6002439A60DA680A40DA601A690A401A615A690A405A619A691140996114E01C685868144399681C6045
:40220000DC681043114314435860996018695969DC609C69104311431861596122439A6110BDC0463002002010B501248440694B221C0E2900D9B6E0081C04F0C1F9081B8D
:40224000203043505761778DB4B4B4B49D00E1431C6858680C4008401C609C685860D8680C4008409C601C69D86058690C401C61014057E0196821431960E44344E0E143C2
:402280005C6818680C405C60DC6808400C4018609868DC601C69104398600C400EE0E1431C6858680C401C609C6808400C405860D8689C601C690840D860144358691C61E6
:4022C00002436BE01968586821431960E1439C6808400C409C60DC685860144348E0E1431C6858680C401C6010433BE05868E14302431C685A609A680C401C600A4044E0C0
:402300001868E443204018609968586820400C4058609C601869DC68596914431043DC6018611143596199690A4350E01968E24311405C6898681960D96814401040114020
:402340005C6098601C695869D9609969144010401C6158610A403AE0E1431C6858680C401C60084058609868DC68084098600C401869DC6002430EE01868E14308405C684A
:402380001860986814435C6002439A60DA680A40DA601A690A401A615A690A405A619A691140996114E01C685868144399681C60DC681043114314435860996018695969ED
:4023C000DC609C69104311431861596122439A6110BDC0461002002038B5184B7F229978041C0A409A700A2104F0F4F80A21051C201C04F033F90E20C9B2FFF73DFE281C16
:402400000A2104F0E7F80A21041C281C04F026F90F20C9B2FFF730FE201C0A2104F01EF91020C9B2FFF728FE201C0A2104F0D2F8C1B21120FFF720FE38BDC046FC01002000
:40244000F0B5D34D01262B7885B0D24C334268D003F0BAFE0F200E21FFF70EFE0E200021FFF70AFEC022930227681D1C3D4366682560181CA5683043191C29436060E06806
:40248000A1601A1C21690243E2600A1C1A43039161692261A2690191194361619446111CBD4A19431288A161042A10D8BB4B039A1843E06001981D431F431E431A431843E7
:4024C000A560276066602261606165461FE0911F04291FD87A0B6D0B51036A03760B1A4319437703400B039EA260019A1F432160410319436760500B770B7D03E160664639
:4025000041031D431943770B256161617D032B43A3616CE20A2A00D869E29F4F00243C8065E29F4A9F4811680140814258D106221A40062A10D10F200E21FFF79DFD0E2000
:402540000221FFF799FD11200E21FFF795FD1020311CFFF791FD5FE058071ED50F200E21FFF78AFD0E200221FFF786FDC02621686768B00201430743A368E26826692160AA
:4025800067606169A76903430243064301433843A360E26026616161A0612D78AA073BD50F200E21FFF768FD0E200121FFF764FDC020226883021A436668A168E768256992
:4025C00060692260A2691E4319431F431D43184313436660A160E76025616061A3611BE0714F724D3B78334201D0714802E09E0708D570480088FFF7EFFE6F7804239F4359
:402600006F7009E00426334206D06B4A1088FFF7E3FE69780E436E70684B0A221E78684B911B1F1C0F41F800664F674926683D780E431F1C8643501B07416568F800634FAB
:402640000D4385433878171A181C3841C700A0680843B8435E4F01903878171A181C3841C700E0680843B8435A4F02903878171A181C3841C70020690843B843564F8446B0
:402680003878121A60691341DB0008439843474B5A78170705D5DF78FF0902D106273E4301E00627BE4326603A4CD60605D5DF780626FF0902D1354301E00626B543656073
:4026C000970607D5DD78EE090625002E03D1019F3D4303E00625019EAE43351CA560570606D5DF780625FE0903D1029F3D4303E00625029EAE43351C7F27161CE560BE4310
:4027000006D0DE780625BE4303D167463D4303E006256646AE43351C25619D78EE0705D5DF780626FF0902D1304301E00626B04360612A480678052E0AD900270770D87854
:40274000C643F7B2FE097F27F60138403043D870AF0703D522482769384003E080202669800130432061280709D401206E0703D566688643301C37E06768384334E0DE7821
:40278000012077062ED566688643301C2CE0C046E40200203002002094020020FF1F0300F40200200100000108030020FC01002090020020A20200204A030020F8010020F8
:4027C000FF03000057020020F81F0000600200200A0200204D020020F001002062020020FFDFFFFF6768384360601878C60703D5804EA7693E4003E0C027FE00A7693E43C5
:40280000A661EE0602D4870707D502E0DE78770603D5794EA7693E4003E0C0277E01A7693E43A661460703D5744EA7693E4003E0C026A76976003E43A661AE0602D40707B6
:402840000AD502E0DE78770606D56D4EA7683740A760E7683E4006E08027BE01A7683743A760E7683E43E6606026470603D5A769B7433E1C01E0A7693E434027A6613D4274
:4028800007D1C7091826002F0BD0A769B7433E1C09E0DE783E4203D0A6691827BE4302E01826A7693E43A6610626D70703D5A769B7433E1C01E0A7693E43A661ED0910D195
:4028C000950706D54E4D266867682E4026603D4018E026688025AD0167682E4326603D4310E0DE78760606D5454D266867682E4026603D4006E080272668BD0167682E43C3
:4029000026603D4365600125C70603D52768AF433D1C01E02668354325600125860603D5A668AE43A66002E0A0680543A560012755070CD5E26825696069A669BA43BD43E3
:40294000B843BE43E26025616061A6610BE0E26825696069A6693A433D4338433743E26025616061A761DB78DF0708D5580602D527680F4302E0234F2268174027609E0720
:4029800008D55F0602D565680D4302E01D4D6068054065605A0708D55D0602D5A7680F4302E0184FA6683740A7601F0708D5580602D5E2680A4302E0124AE5682A40E2600F
:4029C000DE0608D55F0602D527690F4302E00D4F2069074027619A0609D55D0603D566693143616103E0636906491940616105B0F0BDC046FFF9FFFFFFE7FFFF7FFEFFFFCE
:402A0000FFDFFFFF07E0FFFF70B5A84B01251878A74C284259D0A74E062231780A40062A10D10F200E21FFF7FFFB0E200221FFF7FBFB11200E21FFF7F7FB1020291CFFF722
:402A4000F3FB42E048071ED50F200E21FFF7ECFB0E200221FFF7E8FBC02325686168A2689802054301430243E3682560616025696169A260A2690343054301431043E36093
:402A800025616161A0613678B2071ED50F200E21FFF7CAFB0E200121FFF7C6FBC0202568616883021D431943A268E6682069256061606569A1691A431E4318431D430B4316
:402AC000A260E66020616561A3617B4B5A7816070AD5DD780621E80903D025688D43291C06E02668314303E0266806208643311C2160D0060AD5DE780621F50903D06668E6
:402B00008E43311C06E06068014303E0606806218843011C616091060AD5D8780621C60903D0A0688843011C06E0A568294303E0A56806218D43291CA16051060AD5DD7874
:402B40000621E80903D0E5688D43291C06E0E668314303E0E66806218E43311CE160101C7F2188430BD0D87888430621002803D025698D43291C06E02669314303E02569FD
:402B80000626B543291C21619978CD0707D5D878C6090620002E03D16569284303E0062066698643301C454E60613578052D0AD900203070D878C643F5B2EE09F5017F2694
:402BC00030402843D8701D780120EE0603D526688643301C01E02668304320600120AE0603D5A6688643301C01E0A5682843A060C90910D1900706D5314D216863682940A2
:402C000021601D4018E0206880229501666828432060354310E0DB785D0606D5284D21686368294021601D4006E020688022950166682843206035436560224D224A287825
:402C4000161C0641214BF5002068214E18433178A843151C0D41EE0061681E4D206019432878B143161C0641A068F5001A4E1843A84335786160111C2941CE00E5681749DF
:402C8000A0601D430878B543161C0641F0002169134EE56019433578814360692A41D200034393432161636170BDC046F402002010020020E4020020FC010020620200204C
:402CC000FFDFFFFF55020020FF030000F81F0000590200204C0200202C0200205602002061020020074B012207495042186058609860D8601861586198610A88034B1A60FA
:402D00007047C046300200204A0300200C02002038B51E4C3F2263789343802B03D1002003F018FC30E01A482168014205D1194D2B78012B01D1FFF783FB627801252A42DF
:402D400001D0FFF761FEA0782840E8D103F002FC60780121104C084203D120780F4D820002E023780E4D9A005059FFF76BF9217840230B41D8B203F0EDFB22780132D5B2A3
:402D8000062D00D90025257038BDC046F402002000010100AC020020540200203002002010020020FE23D901405C704738B51D4C2378012B0CD11C4D2A78022A02D803F026
:402DC00003FA2DE003F0D2F900232B70237027E0022B10D1154B01251D70154D297802291BD8114A1478042CE9D9053C042C0FD803F0BCF914E0032B12D10D4D2978062969
:402E00000BD8094A10781328D9D914381328EFD9013100202970107002E000212970217038BDC046CB0100204C030020BE010020EE010020F8B5B34B1A78002A00D13EE264
:402E4000B14900200C781870002C01D0013C0C70AE4D2E78002E01D0013E2E70AC4F3B78002B01D0013B3B70AA49AB480A78012A02D10488013400E00024A84D04802E781E
:402E8000A74B013E022E02D81F78013702E000271F70A44BA4481F700288041C632A02D80132028010E0A14DA14F2E78022E05D801362E703A8855003D8003E001230020EF
:402EC0003B802870002626809A4C9B4B27689F4201D8013727609948994D0278994C9A4B2E78013202702778187801362E7001370130964D277018702A780A261640944F0F
:402F0000082E00D09DE00978012929D1914A924E1088924C013010803188A14201D80131318073888E4A934201D801337380B0888C49884201D80130B080F4888C4201D843
:402F40000134F48033898B4201D80133338132898548824200D96EE07189013171816AE0824B834E18883488013082B21A80944247D8002119807F4B774A1878012820D1A6
:402F80001188764CA14201D80131118053887448834201D801335380968872498E4201D801369680D4888C4201D80134D48013898B4201D80133138110896B4EB04220D85A
:402FC0001CE016886C4CA64201D80136168011886A4B994203D856880136568002E0684881420ED89488D3881089664E0134013301309480D3801081B14202D85189013198
:403000005181614A614B14889C4201D80134148010889626B10088420DD94E4B5C481C88844203D95B4900261E800E801C8801341C80002313803C68574EB44203D80134A3
:4030400000E000243C60554F3C780134E3B2052B01D83B700BE0524E00223A70F7780121B809814340238C019F432743F7704D4E4D4F3288BA4214D001324C4990B230803F
:4030800088420ED94A4B002434801E788F2E02D801361E7005E0474A04211078084310701C70454C2778012F03D1444B1E8801361E802A78D20603D5414801880131018031
:4030C000404F414C3B78002B02D02688013626803E4A3F4E1078012806D102F0F3FF002802D13178013100E000213A4B31701A78394E012A72D102F0E5FF01286ED130887E
:4031000001306CE050030020BB010020CD020020A6040020D90200203E030020CB0100204C030020EE0100206C0200201803002008030020100300203F7E0500C101002079
:4031400087020020CA02002062020020F4020020240300204A030020CE0100204F0A0000BF0D0000CF5C000033170000880200206E020020B90100205F0C00007F100000D5
:403180005F6F0000D71B000096020020DBFF00000F270000480300207F38010058020020FC010020A8020020FFFF000060EA0000170300209C0200201C03002084020020DE
:4031C000F2020020BA0100207202002019030020A50200207C020020D20200200020384930800B78374E012B06D102F063FF012802D13278013200E0002233483270017896
:40320000324E012906D102F055FF002802D13378013300E000233F783370002F04D027882B4A974201D8013727802A4C012026782949064001D00E880136284B0E801F78B5
:40324000274C012F02D12288013200E00022254822800178244E012902D13388013300E000233380ED78EA0705D5204F3C78FF2C01D001343C701E4A1E491078012804D1D8
:403280000E78FF2E03D0013600E000260E701A4B1A4F1D78012D04D13C78FF2C03D0013400E000243C70164A16491078012804D10E78FF2E03D0013600E000260E70F8BD95
:4032C000820200202D03002093020020EC0200208F010000E402002094020020CD010020DE020020CA01002080020020EE0200200D030020D8020020160300202C0300208E
:40330000EB0200202803002010B5394B0F209A783849824302D101240C7006E0364B00240C709A78012082439A70344908240B78334A234203D033480178214205D059077B
:4033400043D5304C207800283FD12B4B002111709A780124A2439A702B482C4A01782C4B002913D02B4C207800280FD02A490C78002C0BD029480178002907D0284C2078BC
:40338000002803D027490C78002C09D126480024048019481480847801218C43847000E0002119702148118881421FD91E490C8884421BD91B78002B18D10F480B80138014
:4033C000827801210A43827010E002210B4203D00C4C20780842B8D001210B4203D0094B1C780C42B1D001201070B5E710BDC046FC010020CD010020F40200205A030020D6
:40340000CA01002059030020F8010020DE020020F802002057020020600200200A0200204D020020F001002080020020B70B0000F8B5B94BB94C1978B94FBA4EBA4D2088E1
:40344000012958D1B94B984207D8B949098803F0C1F80A22131A3B7001E0002038706088B449884207D8B44A118803F0B3F80A23191A317001E000203070A088AF4A9042F8
:4034800007D8AF4B198803F0A5F80A210A1A2A7001E000202870E088A84B984208D8A94A118803F097F80A23A749181A087002E0A549002008702089A04A904208D8A349FD
:4034C000098803F087F80A22131AA148037002E09F480023037060899E499F4C884207D89E4B198803F076F80A21081A207034E00022227031E09A4A118803F06BF80A23B0
:40350000181A984938706088098803F063F80A22131A95493370A088098803F05BF80A22101A924B2870E088198803F053F80A210A1A85488E4B02702089198803F04AF838
:403540000A210A1A8248027060898A4C218803F041F80A23804A191A1170874C2278002A07D1397802291ED1844A03231370012318E0012A07D13A78012A14D17F48032302
:40358000037002230EE0022A0BD1397800290AD17B4A0120D37879490343D37003230B7000E0002323703F780A2F04D1744C0121E0788843E070734B1A78002A07D1307801
:4035C00002281ED16D4A03271770012718E0012A07D13278012A14D1684903240C7002270EE0022A0BD13478002C0AD1032163481970634B0170DF783A43DA7001E00027AA
:403600001F7036780A2E04D15D4B0221DC788C43DC705D4F3878002807D12C78022C1ED1564803210170012218E0012807D12A78012A14D1514B03261E7002220EE0022859
:403640000BD12E78002E0AD14D4B0421DC784B480C430322DC70027000E000223A702D780A2D04D1464F0426FA78B243FA70474B354D1C78002C07D12A78022A1ED13F4C08
:4036800003262670012118E0012C07D12978012914D13A4F0320387002210EE0022C0BD1287800280AD1364F0826FA78334C32430321FA70217000E0002119702B780A2BD0
:4036C00004D12F4D0821E8788843E870304F204A3E78002E07D1107802285DD1274903260E70012457E0012E07D11478012C53D1224D03232B7002244DE0022E4AD1137898
:40370000002B49D11E4D1021E8781C4E08430324E87034703FE0C046B9010020CE010020F801002057020020600200204F0A000068020020BF0D0000F0020020CF5C000082
:40374000340300207E0200200A020020DC0200204D02002033170000F0010020E2020020A00200208A020020760200209A020020140300202A030020A6020020CB01002060
:40378000FC01002086020020E90200201B030020ED02002000243C7017780A2F04D11A4C1023E2789A43E270184D194E2878002807D13378022B1ED116480324047001210F
:4037C00018E0012807D13178012914D1114A0327177002210EE002280BD13778002F0AD1094A2024D3780B4823430321D370017000E00021297035780A2D04D1024E2021E5
:40380000F7788F43F770F8BDFC010020CF020020F0010020CB01002008B5FFF709FE244B1878012802D1234B187004E0002802D1204902220A7020480178012902D11F484A
:40384000017004E0002902D11C4B02221A701C490B78012B02D11B490B7004E0002B02D1184802220270184B1878012802D1174B187004E0002802D1144902220A70144835
:403880000178012902D11348017004E0002902D1104B02221A7010490B78012B02D10F490B7004E0002B02D10C480222027008BDF8010020A602002057020020860200209C
:4038C00060020020E90200200A0200201B0300204D020020ED020020F0010020CF02002038B502F003FC294C002814D102F082FC0423227801280CD11343254D23702B78BC
:4039000002210B4207D10B432B70224801F082FC01E09A43227002F0FDFB051E1ED102F061FC012804D1257802208543257015E0194B1A4819780122027005290ED905705D
:40394000257802200543124B25701A7804210A4204D10A431A70124801F05CFC247806250121104A104B2C4207D0157880242943117098786242024305E01078884310704A
:4039800099787F220A409A7038BDC046E4020020D4020020F1900000D80200200D030020F2900000F4020020FC010020584B59481A6810B5584C824206D9584801F02AFC21
:4039C00021780122114302E0217801239943217002F078FB012817D1514C2378002B08D0504B514A1888904226D900212170198022E04E49022208704D484E4B04781443D2
:403A0000047019780A4316E0484C2078012806D1494B18781E280FD9002222700BE0444B022219783E48914319700124414B0470197891430A1C1A7002F03CFB012819D184
:403A40003E490B78012B04D13D4C2378012B19D85DE03C4C374A00232370D17810242143D170334A384C1178014311702070374803704CE0344C2378012B07D134490A78C1
:403A80000A2A44D9002222700A7040E029481021C2782A4B8A43C270012425481C700278A2432A4C02702378201C002B07D129490A78FD2A01D801320A7001240470214B32
:403AC0001878191C002822D1234A1478002C13D0224B187800280FD0214A1478002C0BD0204B1878002807D01F4A1478002C03D01E4B187800280AD11D4C2278012A06D8E6
:403B000001321C4B22700320012418700C7010BD240300203F190100E4020020F09000007C020020D2020020B80B00001903002044030020F4020020A502002082020020A1
:403B40002D0300202003002093020020EA020020EC0200203C030020F801002057020020600200200A0200204D020020F0010020D0020020CB01002000B50C4B1878013811
:403B8000052811D80A490B4A02F01AFD030507090B0D0A6008E04A6006E08A6004E0CA6002E00A6100E04A6100BDC046980200203002002001E0FFFF00B51D4B00221D480A
:403BC0001A70C17803220A431B4BC27019780139022926D8194BF0221A80A021184B4A001A808721174B0A011A801749174B0A801A808722164B910019809022154B5100C0
:403C00001980C022144B51001980A222134913010B80134A134913800B80A22312499A000A800378022213437F210B40037000BDAC020020F40200209802002068020020AE
:403C4000F0020020340300207E020020DC020020E2020020A00200208A020020760200209A020020140300202A030020F8B5C44C10212278C34D0A4221D0C34BC3481E885F
:403C8000864218D829780822114218D0C04E3078024014D11A80BF4ABF4F117801233B704B401370B426002B02D0012B07D19626B700BA4B02E08A43227000271F80207860
:403CC000800600D498E12B780422191C1140B44EB44803D0AE4F3F78174206D10222134207D0AB4F3F78174203D100223280027019E03788A54E01220270B74213D900272D
:403D0000A94E07703778381C10400CD1174337702578A378202104268D43B3432570A370A24C207090E0A24A002930D098480426077837422BD0A0780827384227D0117812
:403D4000322904D8924E317800292AD041E0964F3A789446614601221140F3D1634613433B7027782025B043AF432770A0708F4C904B21705978082010268143B143A943BB
:403D80003F2631405970997891430A1CA7E1864801270678BE43067000201070814218D0D0E77D4A012717708348804A0170834E107804273070A67801303E43C0B2A670EC
:403DC000052801D8107000E01170A27808210A43A2700226334243D06D4B1F783E403FD16D48012303706278744913400ED10E78734871000636734F72000B521352CB5B8E
:403E00000133CB53D65B0136D65302E00F786E4BDE55694801780131CAB20270012A1BD90027614E077030780122031C134013D1104330702778A678202104258F43AE4396
:403E40002770A670594C23705A4BE7205F78272638408843011C94E7A17808273943A170A678700700D4C7E05448524B0078052800D9B9E00821544A02F0A2FB03142A41A5
:403E8000586E5F780F26394398783140597001218843987063780B4201D04C4F397012784B4F13E05F7810268F43391C31431F209F780140597001218F439F7063780B42EE
:403EC00002D04248022606705278424F3A7093E0587810278843011CB943202631433F209F780140597001218F439F7063780B4202D03648032606709278374FE6E75E78DE
:403F0000CF208E43311C0140402739437F2698783140597001218843987063780B4202D02A4E04273770D2782C4FCFE75F788F208F433E1C802106404F423E435E709E781E
:403F4000012086439E706378034202D01F4F052139701279224FB9E75E789F788E43311C0F2001260140374359709F706378334202D016480621017052791A4FA6E7C046AB
:403F8000F40200205A030020F20200202B01000059030020B9010020CB0100206E02002072020020BA0100207802002040030020CA020020FC010020EF010020B002002005
:403FC000CE010020B2020020040200209802002055020020590200204C0200202C02002056020020610200205E7898780721012231409043597098702B7808278D4E3B4205
:404000001FD08D49087838421BD03678322E1CD98A498B4A0868904217D88A4F3E78002E13D101223A70217810231943864D21702878864C2270904201D12E70F8E02A7048
:40404000F6E0804F00223A703270012003420AD079490A78024206D17C4F387026788020414231432170A77860223A4001D0402A3FD10420764F034233D06F4E3178014215
:404080002FD0022003420FD001420DD0002A0BD1704901260B7833430B703A70A0786022904320210843A0703F78322F5DD9694B01221E78164258D1644F16431E703A700E
:4040C000267820210E43644B26705C78182525434020294347429E783943597032439A70A6E05C4B01201A78002682431A703E703BE0202A39D1594E308863281CD8042629
:40410000574F33420BD04C480278324207D002210B4204D00A4202D001233B7025E0A3786026B343402003430022A3703A70677801218F43677018E0012001F017FC2F7870
:404140000422484B17420AD03B490E78164206D00220074203D0064201D0012104E0A77860229743A77000211970287804273E4B384213D030490E783E420FD008221042F7
:404180000CD016420AD01F780A2F09D900213748197001F02FF801202C4B00E000201870334B1E78312E04D960780127384360700EE0304C2278632A0AD928482E49078859
:4041C0008F4205D8274B2D4A002601241E7014702B490E78081C012E2AD12D7808231D4203D0154C22781A4205D06A070DD5124F3978002909D100250570144A2148012467
:404200001470057000F04CFC12E00226354203D0094B1C783442EED00122154203D0064D2F781742E7D01849184B0E889E42E2D8F8BDC046C1010020590300201003002036
:404240009F8C0000C9010020B9010020CB010020CA02002078020020FC010020A802002016030020EB02002087020020C2CC00002C030020280300206F1700008C020020AB
:40428000D9020020BD0100203E030020B70B000070B5124B02229878042110431C7808439870012004435E78144340252C430C4D304300262E70782675420C4301432C439D
:4042C0000A431C705A7007499623074C9A000A8020782026B043207070BDC046FC010020400300206E020020F402002008B500F0A1FF00F0B1FF124B1878124B082819D889
:404300000222997802F05CF90C0C0F050F0F0C0F0F0091430A1C0820824304210A430CE00A43F32008E091430A1C0820024304218A4302E09878F12202409A7008BDC0468B
:404340003E040020FC010020F0B585B0FEF7DCFFFFF76EF8B94B5A781D1CD00703D5B8480178002901D1FFF7BBFAFFF71FFBFFF7BDFF01F0FBF901F08FF9B24C20232678DC
:40438000B14C012E04D12078102103438B4304E0277810229F433B1C13432370FFF766FCAA4E042337781F4208D09F43A848377000F020FF9022100200F01CFF6E783F204D
:4043C000311C814380290ED1A24D01235A4200202A606A60AA60EA602A616A61AA6101F079FE00202DE2402902D18E436E7068E101273E4040D0984E3078002808D197495C
:4044000005220A704A708A70CA700A714A713770934F04203E78934B06421FD092490A7802421BD01B78322B1FD9904A0127117839421AD18E4E3943117037702878202377
:404440001843287065781822A0782A43402113434E42334307436370A7703CE2834C012627780020B74327701870002001F032FE002001F043FE24E1714B1B78002B1CD0D2
:404480007B4D7C4C7C487D492F7007700F70267000F006FB7A4B7B4D072209271A802F8079487A497A4A7B4B654D3C240F2704800C8014801F802E700DE2E878061C3E4071
:4044C000019663D0744E3078011C0B39012904D867480770FFF750FB2FE0021C103A012A18D86E4800780138052826D801225949534202F065F8030507090B0D0B601CE056
:404500004B601AE08B6018E0CB6016E00B6114E04B6112E0011C1339082908D84D4F3B607B60BB60FB603B617B61BB6105E01D2803D15B4B1F70FFF7ABFE3778391C1F3910
:40454000012906D82E7802231E4213D0484F3B7010E0212F0ED9534A06231078184209D12F780220384005D1EA7801218A43EA70307006E02878860703D5A178202211433E
:40458000A1702E78B00700D59BE096E02B780222111C1940944602910391434B10D0A77820210F43A77001981E7001F093FD019801F0A4FDA278AF231340A3703B4B12E0A5
:4045C000384E32783A400092161E0ED008216C460F5D03981F7001F07DFD039801F08EFD0820324B065D1E706BE06146084263D0A378202293432E49A3702C4A0B882D4939
:4046000017708B4209D8381C01F064FD381C01F075FDA3784026334352E06746B843E87068460378301C1370214A4027168001F051FD301C01F062FDA37840E0F402002033
:404640008C020020B9010020FC0100209C02002002900000300200204D030020040200205A030020CA0200205903002078020020CB01002028030020D9020020BD010020CE
:4046800068020020F0020020340300207E020020DC020020E2020020EE02002098020020AC020020E4020020920200201C03002084020020570200001F70A3782027BB43E6
:4046C000A370864C2778002F00D104E1844B1A780192312A05D9E978CA0602D504263143E97080482C680440844203D12F7840231F432F70AA7801211140081E2BD07A4B65
:404700007A4F01211E784842082238607860B860F86038617861B861164203D0744C2778174207D0740700D4C3E071490878002800D0BEE06F4B01201870EA781024144010
:4047400000D0C8E06C4F6D4E3C803480A97801208143A970BFE02E784021314003960291674F31D0674A68491688BB7801240C7001961024A343019E644CA64209D84020C5
:404780000343BB70012001F0B9FC012001F0A2FC0CE0039E4024A6437F2426402E70087040218B431080BB7001F0A8FC584B1022D878104000D08EE01E784024A6431E7075
:4047C000BD78A543BD703CE0EE780420844630403AD0BB781024A343BB704B4A494B012010703C1C1888494FB8420AD8A57840263543A570012001F081FC012001F06AFCC0
:4048000013E060468643EE706D4608261170725B1A80019B032B01D9314F3970A17840208143A170002001F069FC394B1020DA78104050D10427BA43DA70A1784025A9430B
:40484000A17001F05BFC46E010242640314C19D1012001F03FFC301C01F050FCBA78237840260221B243102002430B432370BA702F78082217432F7001252B422BD0AB43D1
:40488000237012E001F026FCBB7810229343BB70217801270F4327702E78082086432E7002252F4217D0AF4327701B4800F0A2FC11E002231E4204D00D4A14781C4200D1C6
:4048C00038E701273E4200D137E7094E3178394200D032E72EE705B0F0BDC046920200203C030020800000105A0300203002002059030020CB010020DE02002080020020A5
:40490000FC010020840200201C03002057020000F40200209C0200200290000008B5012001F0B8FC014B01221A7008BD5003002008B501F027FA01F099FA08BD10B501F034
:4049400009FB01F0CDF901F099F80028FBD1194C194B22781A7001F05DFB21780122002801D0114300E091430120217001F052FB02232178002801D00B4301E099430B1C3A
:404980000220237001F046FB04212278002801D0114301E08A43111C0320217001F03AFB08232278002801D0134301E09A43131C237010BD5A0300205903002008B50348ED
:4049C00000F0EEFF01F058FC08BDC0461D49000070470000F8B52A4C0021201C1F2201F078FE0025E8B2FEF7DDF9605501352C2DF8D10023234AE018991846790F880579E1
:404A00003E433202101C284302330880182BF1D11D4EE1783388A27819430F021743BAB21A4D3280607F2988277F01430B023B439BB22B8020781649164F08706078387032
:404A4000A17F154F3970884201D3387001E0114801709A4201D32A8000E033800026094A95192B88A9898B4201D3AB8100E0298002360C2EF3D12B34084F24783C70F8BDE0
:404A80006A030020CE0100204A03002048030020B90100203C030020210300209802002000B50023164900225818013302701F2BF8D1144BD018002302320380182AF8D1BD
:404AC000114A01201370114A11491070114A0B801380114AA0211370104B8140F02210481A808722018013010E490F480F4A03800B8013800E4887239900018000BDC04687
:404B00006A030020CE0100203C030020B9010020480300204A0300202103002068020020F0020020340300207E020020DC020020E202002000B500230139064A89B291429F
:404B400004D0027801309B18DBB2F5E75B42D8B200BDC046FFFF000030B53B4A031C1078111C0B286CD8394A01F02AFD060B11171B1F252B343A4858FA2B62D101250D7096
:404B80005FE0FB2B01D10220087053705AE0002B01D103240C70937054E004250D70D37050E00520087013714CE0294D06242B700C70537146E0274C072023800870937190
:404BC00040E0244DD371288804021819288008250D7037E02048092403800C70137231E01D4D28880402181984B22C80002C01D00B2500E00A250D70537223E0101C6430F2
:404C00000488592C1ED81519AB720023038013480B70047804210C43047013E0141C64342088582803D815180130AB7220800A4B643212881C88A24204D10A20087001E004
:404C40000023137030BDC046C4040020400400201404002036040020FC030020A804002010B54049031C08780A1C0B2876D801F0A7FC060C131A1F242B323C435263FA2B72
:404C800069D101211170384A66E0FC2B63D1364A02200870537063E0002B01D103211170314CA3705CE0304A04200870D37057E02D4C05211170237152E02C4C2A4A0620DE
:404CC0002370087053714BE00720294C0870264923808B7144E02649088804021819088008211170204AD3713AE022481E4C092103801170237233E01E4C20880102581815
:404D000081B22180002901D00B2400E00A241470154A537224E014480021C48B132C09D80419C18314481170A372027802210A43027015E0117013E00B49C88B12280AD8F5
:404D40000C18013080B2C8830A49A3720B88834206D10A2300E00023137001E000220A7010BDC046F703002016040020FE030020AE040020F4030020A804002010B5074B86
:404D800008241A78013922431A70054B054A064C198000211180206010BDC046B00400203C040020000400203804002000B5044B0F211A6811400829F9D0024B186000BD46
:404DC000080207404002074008B50C4BD878820612D50B490B4A088813880130834206D009490868C05C01331380FFF7DFFF074B08211A788A431A7008BDC046F4020020A8
:404E00003C0400200004002038040020B0040020F7B5214C1D1C0F1C061C019200216422201C01F056FCFA23FB20390A2A0A237060706671A171E77122726572002E04D1A5
:404E4000164E04203778074305E0802E04D1134E042337789F433770201C002D0DD02A1C01990A3001F02CFC291C0A3189B2201CFFF760FE6219907203E00A21FFF75AFEEC
:404E8000A072074F05263E7072B60B35A9B2201CFFF774FF62B6F7BD2C010020B0040020BB01002007B520236A4614210020137051710623034950709070D0701071FFF74B
:404EC000A7FF07BDC0CC00001FB500236846134A037043701188062281701149C2700A783C2102714171F42201218271C171E822032102724172C37283736422094B192161
:404F00000173827242731A88B221C273102380206A46FFF77DFF05B000BDC046300300206A0200204403002007B500236A46137053700120022103239070D17013710420CF
:404F40000521062350719171D3718020B5210823FFF75EFF07BD000010B50B4886B004786A460023947068466400137053700749221C033001F0A4FBE31C8020B4216A46B5
:404F8000FFF746FF06B010BD6A020020020400201FB500236946F4220B704B70062001238870CA700B714A718B71CA710B724A728B72CA720B734A738B738020B5216A46D4
:404FC0000F23FFF725FF05B000BD000007B5002301AA13705370802002490223FFF718FF07BDC046D0CC000007B5064801AA017800231370537091708020B1210323FFF77A
:4050000007FF07BDB901002007B5002301AA137053708020A2210223FFF7FAFE07BD07B5002301AA137053708020A0210223FFF7EFFE07BD07B5002301AA13705370802055
:40504000A1210223FFF7E4FE07BD000008B500200249021C031CFFF7DBFE08BDC2CC000007B5FF2301AA00205370034902231070FFF7CEFE07BDC046C5CC00001FB5134B7A
:4050800069461888124B087006221878F4234A700B713C2203238870CA70CB7101206423E82248718A710B720020CB721922094B487208738A721A880E234A739021090289
:4050C0006A46FFF7A5FE05B000BDC046300300206A0200204403002007B5012269464A700220032206238870CA70042005220B7008714A718B71002002496A460723FFF78E
:4051000087FE07BD019000001FB5F4226946012006230B704A708870CA7008714A718871CA7108724A728872CA7208736A46002002490D23FFF76CFE05B000BD029000004D
:4051400008B500200249021C031CFFF761FE08BDF090000008B500200249021C031CFFF757FE08BDF190000008B500200249021C031CFFF74DFE08BDF290000008B5002070
:405180000249021C031CFFF743FE08BDF390000008B500200249021C031CFFF739FE08BDF490000008B500200249021C031CFFF72FFE08BDF590000008B500200249021CF5
:4051C000031CFFF725FE08BDF690000008B500200249021C031CFFF71BFE08BDF790000008B500200249021C031CFFF711FE08BDF890000010B5054A1378042B04D80449BE
:405200005C0001336052137010BDC046AC040020B404002010B5054A1378072B04D804495C0001336052137010BDC0466A0200200204002000B5064B1A78510706D50549D1
:405240000878002802D101210A431A7000BDC046B0040020BB01002070B5684C0C2322781A422FD1664D287800282BD101F09CF8002827D1634A052113782970002B16D025
:40528000614D62492E880E805E1EF1B21170002904D1237801252B43237008E0411C4E00AE5B40002E52C8B29842F7D1F1E71178002907D1544A118051809180D180118123
:4052C0005181918126780120064200D194E0864326704E4C4E4D2388AB4200D17BE029D8B32B66D011D8A22B69D007D8A02B69D0A12B00D080E0FFF79DFE7DE0B12B5BD04E
:40530000B22B79D1FFF7E0FD76E090210A0293425BD006D8B42B49D0B52B6DD1FFF704FE6AE03C4EB34253D03B48834264D1FFF7EBFE61E0394CA34259D015D8384DAB42F9
:405340004FD008D837498B4248D0374A934253D1FFF70AFF50E0354EB34245D0344883424AD1FFF71FFF47E0324CA34215D008D8314DAB423ED031498B423DD1FFF730FFE1
:405380003AE02F4A93420BD02E4EB3420BD02E48834231D1FFF75AFE2EE0FFF783FD2BE0FFF75EFE28E0FFF711FE25E0FFF7D4FD22E0FFF7EDFD1FE0FFF716FE1CE0FFF73C
:4053C00023FE19E0FFF72BFE16E0FFF757FE13E0FFF782FE10E0FFF7B3FE0DE0FFF7BAFE0AE0FFF7CBFE07E0FFF7D2FE04E0FFF7E3FE01E0FFF7EAFE70BDC046B0040020C1
:40540000A6040020AC040020B4040020C6040020F09000000190000002900000F6900000F3900000F1900000F2900000F4900000F5900000C0CC0000F7900000F8900000BD
:40544000C5CC0000D0CC0000C2CC000038B5334B04211A780A425FD031480588592D5BD88A431A702F4C2B1C0A3399B2201CFFF761FB6219917A81424ED12B480088B328A8
:4054800048D013D8A22825D00BD8A0283BD0A12842D1264D80236C785A422243BF210A4037E0B12836D0B22836D133E0204B98420CD004D8B4282DD0B5282DD12AE01D4968
:4054C000884227D01C4A904226D123E0A47A1B4D2C701FE0A57AE17A2A0253189DB2184B2A021D80617B95B26A185A80E17B6A189A80617C6A18DA80E17C6A181A81647D81
:405500002D195D8106E0094D7F226C78402322401A436A70FFF76EFE38BDC046A8040020FC0300204004002036040020F4020020D0CC0000D2CC0000D6CC00003E04002030
:40554000FA02002038B50F4B04211A780A4218D00D480588592D14D88A431A700B4C2B1C0A3399B2201CFFF7E5FA6219917A814207D10748074B05889D4202D1A47A064A8C
:40558000147038BDA8040020FC0300204004002036040020D0CC00003E04002070B52E4B04251A782A4255D02C490E88592E51D82B4C301CAA430A301A7081B2201CFFF74D
:4055C000B9FAA319997A221C814243D1254E264B308898422FD010D8244988422BD006D890263302984226D01DD8214E18E02149884220D017D8204E12E0204EB0421AD0D3
:4056000004D81F4B6489984212D10EE01D49884211D001D81C4E03E01C4DA84212D01C4EB04217D10EE062890DE0002C12D105E0002C0FD109E0618900290BD11548037866
:40564000AB4306E05289002A04D1124804240378A343037070BDC046A8040020FC0300204004002036040020F39000000290000001600000F1900000F0900000F79000004C
:40568000F5900000C0CC0000F8900000C2CC0000C5CC0000B0040020F8B5294D02222B78284E134233D028490F88122F2FD8274C381C93430A302B7081B2201CFFF73AFA4B
:4056C000E3199A7A824222D1214F1E213888802331705A0190421AD1A17AE07A0F021D4B3A181A80217B607B0F021B4B3A181A80A17BE07B0F02194B3A181A80217C184F88
:40570000184B3970607CA47C0202111919803778002F13D11E2232700C4E391C301C00F0D8FF11480A4A084C0770178027802978022399432970F783FCF7F6FBF8BDC0462A
:40574000A8040020CD020020F403002016040020AE04002090020020A20200208E020020CC020020AA020020F703002010B5074B1A781C1C7F2A01D9FFF710FF2078420608
:4057800001D5FFF7DFFEFFF761FE10BD1404002000B5FEE770B50F490F4A01394B1C14D0506895681468031C1E1AAE4202D040CC40C3F9E7D0681D1C5C1B844202D0002612
:4057C00040C3F9E710320139E8E700F053FFFCF7BBFBFEE701000000EC67000008B500239A00032B02D80D48815800E00C490D4801338150302BF3D1FCF792F90A490B4BD2
:40580000086800221A60002800D108608022D305186801210843186008BDC046001B00009157000000000020C0000020C80000200C4B00B51A68191C002803D080231B06E4
:40584000134301E053005B080B6007490A68002803D080239804104301E004481040086000BDC04680031A4008010B40FFFFFFFD08B5034B40221A6000F056F808BDC046BE
:40588000C0000020000000000230800804D0C0460138FDD1C046C0467047EFF3108072B6704780F31088704700B51F2800D901BE024A800083181868196000BD4000002086
:4058C00038B5041C0D1E032D00D901BE1F2C00D901BEFFF7E2FFA308084A99008B1803221440944019680634A2409143A5400C1C2C431C60FFF7D5FF38BDC04600E400E076
:405900001F231840024A0121814011607047C04600E100E01F231840024A0121814011607047C04680E100E0034B04491A6890B2084318607047C0460CED00E00400FA05BC
:4059400010B5041C8022074B1002844205D91868FFF79AFF04496418F4E758686043FFF793FF10BDD40000200080FFFF08B5034B197A4843FFF788FF08BDC046D400002056
:4059800010B5041CFFF789FF044BA2011968C024A14311431960FFF784FF10BD10E400E0064910B5064B8024640204311C60C8670320FFF7E5FF0348046010BD000000207A
:4059C00080E100E000E100E010B5134B134A196813481170017802780F242140A2430A431A601048104B1149114A1860114811600368114AC0211A40CB001A430260201C24
:405A0000FFF788FF201C0D49FFF74EFF201C0321FFF756FF10BDC04600FF0840C804002062F1FF0F00020001080008400008A0010400084010000140FFF0FFFF3D600000DF
:405A400008B500F05DFD00F03FFD0020011C00F043FD0020011C00F05BFD00F047FD00F029FD044B04491A680F200A431A60FFF747FF08BD0400084000100880024B01214F
:405A8000187808407047C0469001002070B50F4D2818067C047DFFF700FFB1006D18AB69A2001968D2B20F269640B143042696403143EA6A660034191568E4B20726A64056
:405AC000B54315601960FFF7ECFE70BD406700001A4BF7B51A18177C194EBF00365CD819147D836965001A6829190192CDB2A100C8B20F220199824091431960022E06D0DA
:405B0000013E731E9E41764206231E4000E00626FFF7C3FE094A0721D719FB6AA9401A68AE408A43351C15431D60FFF7BAFE386C01270668A740BE430660F7BD4067000007
:405B4000CA04002008B50020FFF7C2FF0120FFF7BFFF0220FFF7BCFF0320FFF7B9FF08BDF8B51F4D041C2B1C2A1C54335832185C175D8100013F4E59B8B200215C3500F032
:405B8000ABFC2D5D0021013DA8B200F0C1FC0F20FFF7C0FE134B144A1F681448115D151938402F790843021C39040A43104D1A602F68104B10481F4007430F20FFF7A0FE90
:405BC000201CFFF763FFFFF768FE2F60041C6F20FFF75AFE0949201C0E60FFF762FEF8BD4067000008000840E400002000FF80FF04000840FF1FDFFF200020000C000840CD
:405C000008B5054B00221A70C1B2812299721A70FFF7A6FF08BDC0469001002008B50E4B420019680D4B0233D152FFF751FF0F20FFF770FE0A480B4A0168A0230A4019024F
:405C40000A4302600848094A03681A4002600F20FFF756FE08BDC0460C0008409001002004000840FF1FDFFF0800084000FF80FF034B03211A68084040021043186070474C
:405C80000400084010B5074B00241C705C709C70DC70FFF799FE201CFFF7EAFFFFF752FF10BDC046CA04002007230B40C908405C01229A401040431E9841704710B5041CF8
:405CC0000134E4B2042C06D00448211C0830FFF7EBFF0028F4D0201C10BDC046E400002010B50A4C0023FF202370A072A07AFFF7E5FFA072A17A032906D8237801221343F2
:405D00002370A07AFFF72CFF10BDC0469001002010B50724CB08214001248C40C018E4B20378002A02D01C43047001E0A343037010BD000010B5041CFFF762FF034B1A7821
:405D4000D107FBD402336000185A10BD90010020F7B500231418071C0191237008268025207828432070381CFFF7E4FF0199884202D22278AA432270013E6D08002EEFD12E
:405D8000F7BD000070B51E4CE37A002B03D1FFF779FF0120E0721B4DFFF752FE29681A4A00240A402A60194E331C5433E05C81008A595526100C7043642100F00BFC144EC3
:405DC000011C321C201C0134FFF7C2FF321C042CE9D10023D15C101D4C1C660849081E54D1540133042BF5D12A688023580410432860084D80262C68F1032143296070BD6B
:405E00009001002008000840FFFFFFFC40670000E40000200400084030B5094B094A1C5C4300995A084A00251018057205730748074D99521219045D5953147430BDC04668
:405E400094670000920100209C010020B0670000D204002010B5041CFFF7D2FEFFF70EFE0028FBD1201CFFF7D7FF10BD08B50020FFF7F0FF0120FFF7EDFF0220FFF7EAFF6E
:405E80000320FFF7E7FF08BD2C4BF0B52C4A041C185C2C4E11180D792B4F85B003956300985BDA5B4500811848198708B9B2274899531A5A0026914205D3254B1E558E1A99
:405EC000B5B2012311E0531A9DB2142D0CD9204F395D042904D9201CFFF79EFF3E5501E001313955331C18E0331C03998D4203D9132D12D8002B0FD101190191097A1602D9
:405F000031438A1AD7193E0A610046520198104A07720027175500E001230C49039E0C19B54206D9002B04D0FF23FF2D02D8257301E00023237305B0F0BDC0469467000068
:405F4000B0670000D2040020920100209C010020CE04002010B500240648211CFFF7A4FE002802D0201CFFF78FFF0134042CF3D110BDC046EC000020234BF0B523491E5CEB
:405F800085B08A19157B8F5D0295214D041C0397107A2F1C15370190211C381CFFF784FE2B191A7B00280FD0019902980B1A9A4220DA381C211C0022FFF7AAFE6F460C22D0
:405FC000D15DAE19317415E001980299AE1943189A420BDB317C0139CBB23374002B09D1381C211C0122FFF793FE03E06F460C22D05D3074281C211C1530FFF755FE431EA8
:40600000984105B0F0BDC04694670000B06700009C010020084B70B51818047C067D00253619201CFFF7A8FF002800D001250134B442F6D3281C70BDB067000070B50F206A
:40604000FFF768FC154B164D01261E602878FFF7E5FD144C207841B2002903DA2378B343237016E02878FFF729FE28702A78032A03D82878FFF774FD0BE02378B3432370C6
:4060800025786A0605D5084C08492078084A087016700F20FFF734FC70BDC046140008409A01002090010020C9040020EC000020B2010020024B18688107C80F7047C04667
:4060C00004020440024B18684107C80F7047C04604020440044BFE2219680A4001210840104318607047C04600020440024B0121186808407047C04604020440044BF7224B
:406100001968C0000A400821084010431860704700020440024B18680107C80F7047C046040204400B4B8022D004186019680C2019601A6800211A60074B084A1860084BF2
:40614000FA2011601860074A074B7D213120116018607047400105406401054078010540540105404C0105406801054008B5FFF794FB044B02211A688A431A60FFF791FB23
:4061800008BDC0460000054038B50C1C051CFFF784FB034BA5401D60FFF783FB38BDC0460800054010B5FFF778FB064B02241A6822431A60FFF775FB201C1821FFF7E4FFFE
:4061C00010BDC0460000054010B5054C2378002B03D1FFF7A7FF01202070FFF7E3FF10BDB3010020024B1868C106C80F7047C04604030440024B18688106C80F7047C046B6
:4062000004030440074B00221A600749074B0C20012208601A600649064B6420322208601A607047000105402401054038010540140105400C01054038B50C1C051CFFF73B
:406240002CFB034BA5401D60FFF72BFB38BDC0460800054010B5FFF720FB064B01241A6822431A60FFF71DFB201C1821FFF7E4FF10BDC0460000054010B5054C2378002BE6
:4062800003D1FFF7BFFF01202070FFF7E3FF10BDB4010020014B18607047C04630010540184A194B194810B5194900241A6004600122184B18480A60184903600720086041
:4062C0001749184804600A60174A0A201360174B1C60FFF71FFB0A200321FFF7F1FA14490A20FFF7E1FA13481349144A0460144B0C6014601349144A04201C6008601460AF
:4063000010BDC0460B0000020000064040000640480006400700008000030640040306404400064010030640000206400402064099650000880E0640C80E0640480F0640FC
:40634000080F0640C80F0640880F064010B500F01BF9041C00F010F9094B002803D01C6000F004F902E0074A10681C60064CD82321689A0022600A401402204310BDC0467D
:40638000C80F064040030640C00F0640014B18687047C04640030740024B0F21186808407047C04608030740024B0F21186808407047C04608020740024B002218681A60FF
:4063C0007047C046C80F0740184A194B194810B5194900241A6004600122184B18480A6018490360072008601749184804600A60174A0B201360174B1C60FFF78BFA0B20BE
:406400000321FFF75DFA14490B20FFF74DFA13481349144A0460144B0C6014601349144A04201C600860146010BDC0460B0000020000074040000740480007400700008074
:40644000000307400403074044000740100307400002074004020740AD650000880E0740C80E0740480F0740080F0740C80F0740880F074010B5FFF79FFF041CFFF78CFF0B
:40648000094B002803D01C60FFF780FF02E0074A10681C60064CD82321689A0022600A401402204310BDC046C80F074040030740C00F0740034B80221968100608431860E5
:4064C0007047C04600000240024B1A68500041081960704700000240034B1A68110C0A04104318607047C04600000240034B802219681006084318607047C0464000024075
:40650000024B1A68500041081960704740000240034B1A68110C0A04104318607047C04640000240044B7F2219681140C201081C1043C1B21960704700000440044BBF2229
:40654000196880010A404021084010431860704700000440044B802219680A407F210840104318607047C04600010440014B18687047C04640030640024B0F211868084098
:406580007047C04608030640024B002218681A607047C046C80F064008B5034B1868002800D0804708BDC0462801002008B5034B1868002800D0804708BDC04620010020D6
:4065C00002B4714649084900095C49008E4402BC7047C046002934D00123002210B488422CD301242407A14204D2814202D209011B01F8E7E400A14204D2814202D2490077
:406600005B00F8E7884201D3401A1A434C08A04202D3001B5C0822438C08A04202D3001B9C082243CC08A04202D3001BDC082243002803D01B0901D00909E3E7101C10BCBA
:406640007047002801D00020C04307B4024802A14018029003BDC046190000000029F0D003B5FFF7B9FF0EBC4243891A1847C0467047C04670B50E4B0E4D0024E81A8510DF
:406680001E1CAC4204D0A100725890470134F8E700F09AF80849094A0E1C541AA5100024AC4204D0A300F05880470134F8E770BDD4670000D4670000D4670000DC67000048
:4066C00010B50023934203D0CC5CC4540133F9E710BD00B58218031C934202D019700133FAE700BD0000000004320F4003330F4002400F4002410F4007420F400A430F4018
:4067000002600F40B880BE40D804DF0118018C01EE086F20DA80AF20EE100F0260106C407008C201D802DC031C1061028C488D029490A408AF01C604D802E408020111012C
:406740000000FF0F0000FF0F0000FF0F0000FF0F00000000000102030000014004000140080001400C000140100001400800044008010440080204400803044008040440E8
:40678000000004400001044000020440000304400004044000010203020202020101010101000000020000000400000008000000050505051414141496A890900A0A0A0A70
:4067C0000001020301010101F8B5C046F8BC08BC9E467047ED1D0000DD570000F8B5C046F8BC08BC9E467047C51D000000680000D000002030000000E00300000000000078
:40680000000000000000E02EC05D00001800000000366E0178787878505050500F000000080004400800044008000440080004400000000000000000000000000000000011
:406840000000000000000000000000000000000000000000000000000000000000000000000000000000000000000000000000000000000000000000000000000000000018
:4068800000000000000000000000000000000000000000000000000000000000000000000000000000000000000000000000000000000000000000000000000000000000D8
:4068C0000000000000000000000000000000000000000000000000000000000000000000000000000000000000000000000000000000000000000000000000000000000098
:406900000000000000000000000000000000000000000000000000000000000000000000000000000000000000000000000000000000000000000000000000000000000057
:407FC00068111B000035000000804D0000000000000000000000000000000000000000000000000000000000000000000000000000000000000000000000000000000000EB
:0200000490303A
:02000000990F56
:0200000490402A
:200000000000000000000000000000000000000000000000000000000000000000000000E0
:0200000490501A
:0C00000000020416119311010437AAA29B
:0200000490600A
:0100000001FE
:00000001FF