:4000000000100020110000001D0200001D02000008B500F011FB00F003F9000010B572B680220021D2003E4800F015FF80220021D2003C4800F00FFF3B4A012313703B4AC8
:400040003B4913703B4B08221A703B4B02221A703A4B0C2019603A4B99211960394B10211960394BDB21C9011960384B31211A60374B1960374B99211A60374B0904196030
:40008000364B19780A431A70354A117881430420014311701A7816210A431A70314A80231168DB020B4313602F4B141C18782F4BC0B219782E4BC9B21A78172A05D92D4AFA
:4000C00058789978033B9342F6D12B4B192218602A4B052019602A4B1A6000F0F1FB294B05201A78284BD2B21A6000F031FD2268264B13402360264A264B1A60264B2022A5
:400100001A60264B10221A60254B802212061A60244A254B1A60254A254B1A6010BDC04600300F4000400F4019430F4059430F4000EE0300C6430F40D6430F400C0001405E
:4001400010000140000304400803044000040440080404401804044030500F4000700F4001700F4000010B40CCF1FF0FCDF1FF0FC9F1FF0FBDF1FF0F1CFF0B4020FF0B401B
:400180002CFF0B40E5F1FF0F28FF0B40FFFFFBFF0600008004010B40080202402002024008010B401700008000000240CF0000804000024010B5064C2378002B07D1054BF2
:4001C000002B02D0044800E000BF0123237010BDE800002000000000700E000008B5084B002B03D00748084900E000BF07480368002B03D0064B002B00D0984708BDC04612
:4002000000000000700E0000EC000020D00000200000000008B500F037FBFEE7FEE7000070B51048104B0138421C15D01E685C689D680022A118AA4203D0B158A15004322E
:40024000F8E7DA680D1C4C1B944202D0002410C1F9E710330138E7E700F0CEFDFFF7DAFFFEE7C046010000009810000008B500239A00032B02D80D49895800E00C490D48A5
:4002800001338150302BF3D1FFF7C8FE0A4B00221A600A4B1A68002A00D11A608023DB051A6801210A431A6008BDC046000000001D02000000000020C8000020C000002061
:4002C0000047000010B5FF231A1C0139074C89B2A14208D0047801305440054A125D5A40044B1B5DF1E71002184310BDFFFF0000740E0000740F0000044B1A680F2313404C
:40030000082BF9D0024B18607047C046080206404002064008B5094B1B78002B0DD00849084A0988138801318B4206D00649581C09681080C85CFFF7DFFF08BD94050020DD
:4003400050030020440300204C030020044B01391980044B00221A80034B18607047C04650030020440300204C030020F7B5234C0192071C0E1C201C0021FF221D1C00F099
:400380006AFDFA232370FB2363700123A3701C4B9E4205D01B4B1B78E3701B4B1B782371330AA3712B0A6771E67123726572201C002D0FD02A1C01990A3000F043FD291C11
:4003C0000A3189B2201CFFF77DFF6319020A9A72D87205E00A21FFF775FF030AA372E0720A4B08211A780A431A7072B60C35A9B2201CFFF7ABFF62B6F7BDC046040100208F
:40040000C5CC000015020020480300208805002030B5414A031C10780D2879D800F0E2FC070D141B20252C333A414B667855FA2B01D101211170394A6BE0FB2B01D102210E
:400440001170364A537065E0012B01D103211170324A93705EE004211170304AD37059E0052111702D4A137154E02D490B70062111702A4A53714DE02A490B70072111700C
:40048000264A937146E027490B7008211170234AD3713FE024490B70092111701F4A137238E021490B700B21002B00D10A2111701A4A53722EE01948011CFE314988F42919
:4004C00028D841188B720D2323E0144C211CFE314888F4281ED82018C37200234B801370124B08211A780A431A7013E00B48041CFE346188F32903D845180131AB726180F3
:40050000094BFE3041881B78994203D10A2300E00023137030BDC0468C050020520300204603002047030020170200205404002070B5084C042523682B420AD0064E0023F3
:40054000337000F025FCC0B2FFF762FF01233370256070BDC00F06409405002038B50C4B1B78012B12D10B4C0B4B22689A4201D900F04EFB094B22689A4204D9002525606A
:4005800000F018FB256023680133236038BDC046580400209005002040420F00C8550F00013808B509282AD8C901494200F01AFC0507090B0D0F1614181B154B08E0154BC3
:4005C00012E0154B0DE0154B0EE0154B00E0154BC9180878C0B21AE0134B02E0134B00E0134BC9180FE0134BC9180B7848788A780002120410431843CB781B0606E00020A1
:4006000000F082FA00210B7848780002184308BDC07F0000C17F0000C57F0000C97F0000D07F0000D17F0000D67F0000D27F0000D47F0000D87F00000C4B10B51A681023FD
:400640001A400B4B00D11A601A68802A0DD100240220211C1C60FFF7A3FFA04205D0211C0220FFF79DFFFFF72BFE10BD00030B40C0000020F8B5051C291C0320FFF790FF61
:40068000291C041C0420FFF78BFF671CFF013F18291C0320FFF784FF00240130C001261CB84209D203785A1ED2B2FD2A00D801261C19E4B20130F3E70120291CFFF770FF0B
:4006C0006442E4B20623844203D17242564176423340181CF8BD0000F0B5D3B000F0A6FA00F0A8FA00F0B4FA574800F0BFFA00F0D1FA00F0DFFA62B6544B01226420002466
:400700001A7000F00FFA0194FFF728FFFFF702FE4F4D019E01232B70002E02D0013E019600E0019C4B4B1B78012B13D1029E4A4B013602969E420FD9484E8027376000F078
:40074000E5F90020FFF796FF002805D1376000F0DDF901E000260296002C10D1404B1B78002B0CD13F4A80233F4E5370201C3F4902231470FFF7FAFD01240196C4E73C4BFF
:4007800068461A781107CE0F06740029BCDA39490978F429B8D8F0B228700820364D82431A706B189E7ADB7A8640F6180A31281CB6B2FFF787FD8642A6D1EE782F4B03960A
:4007C0002E7903981E702E4B1870AF79EB793F02FF18264BBFB29F4203D02A4B9F4204D092E71F4BFF221A708EE7291C80220A3107A800F027FB039A1A4D964212D1052EAC
:4008000010D907A9FF2000F06FF86E4600200223391C2A1C28706870FFF7A8FD0D4B367C1E7071E7301C07A9213000F05DF8124B0020DB781349EB702A1C02232E7128705F
:400840006870FFF793FD5FE73105000094050020580400201602002050C30000C00000201402002059040020A0860100C5CC00005404002017020020520300204803002042
:4008800015020020D2CC000008B50020FFF7F2FE0022904200D00622074B1868191C402801D0002A03D000230B60FFF715FF80221A6000F02BF908BDC0000020000000000A
:4008C0000230800804D0C0460138FDD1C046C046C0467047EFF3108072B6704780F310887047C046C046C046F0B50024CBB0069404900794FF2800D9A4E0A14200D1A1E0A9
:4009000008AD8022281C00F09DFA231C211C221C029498002858002802D01218014302930133202BF5D1002A05D1002900D08EE00191039102E0002001900390484F7F23FF
:4009400028AE291C80222AA82897464C736000F079FA454A454B266013602168090F0A2903D022680F23134000E000230693069F002F69D1FFF7AEFF3D4A3E4B116807971F
:400980001960069B0590002B14D13B4A04982892289A01040A43289228AA22603249374A0A602268120F0A2A03D02E4B1A680F2313400693069F002F38D1019A002A35D0A3
:4009C000391C8022281C00F046FA0298039A08A983005A50224B2AA8289380227F23736000F030FA214820492660086023681B0F0A2B03D01B4B1F680F231F400697069B13
:400A0000002B13D11E4A04982892289A01040A43289215491B4A26600A602268120F0A2A03D0104B1A680F2313400693079B002B04D1104A0E481268026007930598FFF760
:400A40004DFF01E00423069306984BB0F0BD02998B00E85801210390EA5001916EE7C046B6D7000008000040040000400400008008010B4004020020B6D8000005000080D7
:400A8000B6D90000060000801F2800D901BE034A80008318186819607047C0464000002038B5041C0D1E032D00D901BE1F2C00D901BEFFF70FFFA308084A9B009B1803226D
:400AC0001440944019680634A2409143A5400C1C2C431C60FFF702FF38BDC04600E400E01F23184001238340181C014B1860704700E100E01F23184001238340181C014BBD
:400B00001860704780E100E001BE7047034B04491A6892B20A431A607047C0460CED00E00400FA0510B5041C8022074B1202944205D91868FFF7C4FE044BE418F4E758684F
:400B40006043FFF7BDFE10BDD40000200080FFFF08B5034B1B7A5843FFF7B2FE08BDC046D40000200C4B8022D2041A601A680B491A6000220A6019681960094B0C21196029
:400B8000084B1A60084B31221A60084BFA221A60074B7D221A6070470001054008010540240105403801054028010540140105400C01054008B5FFF78DFE044B01211A6876
:400BC0008A431A60FFF78AFE08BDC0460000054038B50C1C051CFFF77DFE034BA5401D60FFF77CFE38BDC0460800054010B5FFF771FE064B01241A6822431A60FFF76EFEAE
:400C0000201C1821FFF7E4FF10BDC0460000054010B5054C2378002B03D1FFF7A3FF01232370FFF7E3FF10BD0802002008B500F059F808BD08B5054B8022196812060A4328
:400C40001A600A20FFF74CFF08BDC0460000064010B5054C2378002B03D100F043F801232370FFF7E7FF10BD0C020020014B58607047C0460C020020014B18687047C0469D
:400C800040030640024B18680F2318407047C04608030640054B8022196852020A431A601968034A0A401A607047C04604030640FFFFFEFF054B8022196852020A431A6093
:400CC0001968034A0A401A607047C04604020640FFFFFEFF024B002218681A607047C046C80F0640184A194B10B51A60184B00241C60184B01221A601749184B07200B60BE
:400D00001749086017490A200C6017490A60174A1360174B1C60FFF7EDFE0A200321FFF7BFFE14490A20FFF7AFFE134B04221C60124B1C60124B1C60124B1C60124B1A600B
:400D4000124B1C6010BDC0460B00000200000640400006404800064000030640070000800403064010030640440006400002064004020640D10D0000880E0640C80E0640F6
:400D8000480F0640080F0640C80F0640880F064010B5FFF79FFF041CFFF774FF094B002803D01C60FFF768FF02E0074A10681C60064AD82311689B0013600B401B02184379
:400DC00010BDC046C80F064040030640C00F064008B5034B1B68002B00D0984708BDC0461002002002B4714649084900095C49008E4402BC7047C04670B50E4B0E4D002401
:400E0000ED1AAD101E1CAC4204D0A300F35898470134F8E700F02EF9084B094D0024ED1AAD101E1CAC4204D0A300F35898470134F8E770BD801000008010000080100000AF
:400E40008810000010B50023934203D0CC5CC4540133F9E710BD031C8218934202D019700133FAE770470000C0100000810000000000000000C1814001C0804101C080419D
:400E800000C1814001C0804100C1814000C1814001C0804101C0804100C1814000C1814001C0804100C1814001C0804101C0804100C1814001C0804100C1814000C1814012
:400EC00001C0804100C1814001C0804101C0804100C1814000C1814001C0804101C0804100C1814001C0804100C1814000C1814001C0804101C0804100C1814000C18140D2
:400F000001C0804100C1814001C0804101C0804100C1814000C1814001C0804101C0804100C1814001C0804100C1814000C1814001C0804100C1814001C0804101C0804191
:400F400000C1814001C0804100C1814000C1814001C0804101C0804100C1814000C1814001C0804100C1814001C0804101C0804100C1814000C0C101C30302C2C60607C731
:400F800005C5C404CC0C0DCD0FCFCE0E0ACACB0BC90908C8D81819D91BDBDA1A1EDEDF1FDD1D1CDC14D4D515D71716D6D21213D311D1D010F03031F133F3F23236F6F73711
:400FC000F53534F43CFCFD3DFF3F3EFEFA3A3BFB39F9F83828E8E929EB2B2AEAEE2E2FEF2DEDEC2CE42425E527E7E62622E2E323E12120E0A06061A163A3A26266A6A767D1
:40100000A56564A46CACAD6DAF6F6EAEAA6A6BAB69A9A86878B8B979BB7B7ABABE7E7FBF7DBDBC7CB47475B577B7B67672B2B373B17170B050909151935352929656579790
:40104000559594549C5C5D9D5F9F9E5E5A9A9B5B99595898884849894B8B8A4A4E8E8F4F8D4D4C8C44848545874746868242438341818040F8B5C046F8BC08BC9E46704730
:40108000DD0100006D020000F8B5C046F8BC08BC9E467047B5010000A8100000D000002018000000B0040000000000000000E02EC05D00001800000000366E01000000000B
:4010C00000000000000000000000000000000000000000000000000000000000000000000000000000000000000000000000000000000000000000000000000000000000F0
:401100000010002011110000294900002949000008B5024B83F3088803F008FC00100020F7B572B66E4B01221A7080220021D2006C4804F0A6FE802200216B48D20004F0EB
:40114000A0FE0023191C694C18591C34C2B20192071CFF2297434A00A4180022019ED5B2AE4209D05500665D6519B446BC446D78664635700132F1E7C0B2043309181C2BE5
:40118000E1D15B4A5B4B01201A605B4B99221A605A4B3F221A605A4A5A4B16211A605A4BF9221860594B5A4C1A605A4A5A4B31251A605A4B81221A60594BC0221A60594AC8
:4011C000594B1A60594B5A4A19605A4B1A605A4B02221A6006232360584C2560584C594D2360594C99231B042360584C2360584C2560584C80252D042560574C2360574BF2
:4012000080248C401C60564B0C241860554B1A60554B187802431A70544A1078A0430424204310701A781143514A197011688023DB020B4313604F4B141C18784E4BC0B223
:4012400019784E4BC9B21A78172A05D94C4A58789978033B9342F6D14A4B192218604A4B05201960494B1A6003F0DAFB484B05201A78484BD2B21A6003F00EFE2268464B81
:40128000012013402360454A454B1A60454B11221A60454B21221A60444B20221A60444B10221A60434B31221A60434B30221A60424B802212061A60414A424B1A60424AFA
:4012C000424B1A60424A434B1A60434B434A1360434A1360434A444B1A6003F077FBF7BD1C700F4000300F4000400F4090600000990003000C0001401000014000000440BF
:40130000B06D1B0008000440180004400001044000040440006C1B0008010440180104400002044000624B000802044000030440B160000008030440180304400804044078
:40134000180404400400990000500F4010500F4020500F4024500F4030500F4038500F402000004000800F4000700F4001700F4000010B40CCF1FF0FCDF1FF0FC9F1FF0FA1
:40138000BDF1FF0F1CFF0B4020FF0B402CFF0B40E5F1FF0F28FF0B40FFFFFBFF0600008004010B40080202400C0202401402024018020240200202402402024008010B4097
:4013C000FE00008000000240FE0000C0400002401700008080000240CF0000800400024044000240BF5D00808400024010B5064C2378002B07D1054B002B02D0044800E0E9
:4014000000BF0123237010BD0001002000000000945E000008B5084B002B03D00748084900E000BF07480368002B03D0064B002B00D0984708BDC04600000000945E000069
:4014400004010020D00000200000000008B5042003F06CFC092003F0F3FC03F0FBFC08BD08B503F0F7FC08BD70B50B4D04262B6833420FD0094C7F23A2781340A37004F000
:401480000BFBC0B202F08EFBA27880235B421343A3702E6070BDC046C00F06409C020020F8B50A4D04262B6833420DD0084C0127E378BB43E37004F079FAC0B202F0F8FBE9
:4014C000E3781F43E7702E60F8BDC046C00F07409C02002038B504F083F91E4C2578002D12D104F0BFF81C4B012808D11A780132D2B21A70642AF0D920701D70EDE71D708B
:40150000257004F067F924E00025257002F098FA124B1A78012A03D11D7002F0A9FA01E002F01EFA02F0CEFAFA20800003F0B4FC0B4C2578002D08D104F094F8012801D119
:401540002570F5E701232370F2E70023237003F081FC38BDBF010020BE01002030020020BA01002008B5054B8022196812060A431A600A2003F050FC08BDC04600000640DA
:4015800010B5054C2378002B03D104F02FFA01232370FFF7E7FF10BD1C01002008B50A2003F044FC044B0A201A68520052081A6003F046FC08BDC0460000064008B5054B33
:4015C0008022196812060A431A600B2003F024FC08BDC0460000074010B5054C237A002B03D104F08DF901232372FFF7E7FF10BD1C01002008B50B2003F018FC044B0B2065
:401600001A68520052081A6003F01AFC08BDC0460000074008B504F0E9F9FFF7A3FFFFF7AFFF024A024B5A6008BDC046691400001C01002008B504F063F9FFF7BFFFFFF789
:40164000CBFF024A024BDA6008BDC046A11400001C01002008B504F0C3F8044804F0A2F8012004F0A5F804F0B5F808BDD514000008B504F03DF9044804F018F9002004F07D
:401680001BF904F02DF908BD6114000008B50D49092003F095FB092003F0BEFB03F0D2FA0020012103F0F4FA0020074903F0FEFB0121002003F006FB012003F01DFB03F09B
:4016C000B3FA08BD4D140000FFFF0000FA2008B5800003F0CBFB02F067F802F067F802F0C7F862B602F01CF802F054F801F080FD354B00221A7000F0CDFDFFF7B9FFFFF762
:4017000089FFFFF797FFFFF7C1FF042003F042FB6223013B002B28D02C4A0021D21A80321170F6E718782A4B19782A4B1A7800F02FFA294B1A780A2A05D900221A7002F0A8
:40174000C1F903F063F9254B1A78052A01D900221A70234B1A78642A25D8224BFA2219889200914201D900221A8002F0ABF901F0B5FD02F0A7F901F0D9FF00F085FA02F004
:40178000A1F901F0D9FD00F03BFA02F09BF902F041FB02F097F9144BDA78144B1107C1D502221A70BEE700221A70114B1B883C2B07D9104B1A78002A03D101221A70FFF7DC
:4017C00049FF03F071F8C8E7BA0100209E030020870200208502002096020020BC010020C8010020CA0100209C020020E0020020520200208302002008B5012004F0C8F9D5
:40180000012004F0DDF9012004F0CEF9012004F0B3F9012004F0A4F9012004F095F9012004F0DAF9012004F0EFF9012004F0E0F908BD10B5041E012C16D000280BD002280C
:401840001BD1002004F0C8F9002004F0DDF9002004F0CEF911E004F0A7F9201C04F098F9201C04F089F908E0002004F079F9002004F06AF9002004F0A3F910BD354B10B543
:401880001B78041CDA0701D5002002E09A0703D5012004F0A1F90AE05A0701D52E4B02E01A0704D52D4B1B78002BF1D1ECE7052C4ED8201C04F0FCF90308101B293A00201E
:4018C00004F072F9012003E0012004F06DF9002004F05EF9012006E0012004F065F9012004F056F9002004F047F9012009E0012004F05AF9012004F04BF9012004F03CF958
:40190000002004F02DF901200CE0012004F04CF9012004F03DF9012004F02EF9012004F01FF9002004F010F901200FE0012004F03BF9012004F02CF9012004F01DF9012056
:4019400004F00EF9012004F0FFF8002004F038F910BDC0460402002046020020FB02002010B5002004F044F9002004F04DF9564B1B78DA0701D5002002E09A0703D50120A6
:4019800004F02AF90AE05A0701D5504B02E01A0704D54F4B1B78002BF1D1ECE74D4C2378DA0701D5002002E05A0603D5012004F0FBF80CE06378DA0601D5444B03E0A37854
:4019C0005A0704D5424B1B78002BEFD1EAE723789A0701D5002003E0DB09012B03D1012004F0D6F80CE063789A0601D5374B03E0A3781A0704D5364B1B78002BEFD1E9E76F
:401A000023785A0701D5002003E06378DA0703D5012004F0B1F80BE05A0601D52B4B03E0A378DA0604D52A4B1B78002BF0D1EAE723781A0701D5002003E063789A0703D583
:401A4000012004F08DF80CE0DB09012B01D11F4B03E0A3789A0604D51D4B1B78002BEFD1E9E72378DA0601D5002003E063785A0703D5012004F068F80BE0A378DA0701D5CD
:401A8000124B02E05A0604D5114B1B78002BF0D1EAE723789A0601D5002003E063781A0703D5012004F08CF80CE0A3789A0701D5064B03E0DB09012B04D1054B1B78002BDC
:401AC000EAD0EEE710BDC0460402002046020020FB020020FC01002008B5002004F058F8002004F06DF8002004F05EF8002004F043F8002004F034F8002004F025F80020D8
:401B000004F06AF8002004F07FF8002004F070F808BD000010B51D4B1C78002C19D0012004F036F8012004F04BF8012004F03CF8012004F021F8012004F012F8012004F067
:401B400003F8012004F048F8012004F05DF8012018E0201C04F01CF8201C04F031F8201C04F022F8201C04F007F8201C03F0F8FF201C03F0E9FF201C04F02EF8201C04F0B9
:401B800043F8201C04F034F810BDC0464602002008B5052817D804F08BF80306090D1114FFF72AFE0FE0FFF7DBFE0CE0081CFFF740FE08E0101CFFF761FE04E0FFF78CFFD1
:401BC00001E0FFF7A7FF08BD10B5041C302003F00BF8211CFE2002F037FF10BD10B5041C302003F001F8211CFD2002F02DFF10BDFE23DB01C05C7047FD23DB01C05C704723
:401C000038B51D4C2378012B0CD11C4D2B78022B02D803F0ADFD2DE003F07CFD00232B70237027E0022B10D1154B01221A70154B197802291BD8114A10780428E9D90538F1
:401C400004280FD803F066FD14E0032B12D10D4B197806290BD8094A10781328D9D914381328EFD9013119700023137002E000221A70227038BDC046C7010020FE02002060
:401C8000B9010020E901002070B59C4B1A78002A00D13FE200221A70994B9A4C1A7801321A70994B1A7801321A70984B1A8801321A80974B1B78012B06D103F0E3FC0028CA
:401CC00002D12378013300E000232370914B924C1B78012B06D103F0D5FC012802D12388013300E0002323808C4B8D4C1B78012B06D103F0BFFC012802D12378013300E078
:401D000000232370874B884C1B78012B06D103F0B1FC002802D12378013300E000232370824B1A78002A01D0013A1A70804B1A78002A01D0013A1A707E4B1A78002A01D01F
:401D4000013A1A707C4B1A7801321A707B4B1A78FF2A01D001321A7079497A4B0A78012A02D11A88013200E000221A80764B1A78764B012A04D11A78FF2A03D0013200E04C
:401D800000221A70724883785A0705D5714B1A78FF2A01D001321A706F4B1A786F4B013A022A02D81A78013202E000221A706C4B1A706C4B6C4C1A68A24201D801321A604C
:401DC0006A4B6B4C1A68A24201D801321A60694B694C1A88A24215D00132684C92B2A24201D81A800EE000221A80654B1C788F2C02D801341C7005E0624C042625781A700D
:401E000035432570604B1A78604B012A04D11A78FF2A03D0013200E000221A705C4B1A785C4BD40702D51A88013200E000221A80594B1A78594B002A01D01A8801321A8019
:401E400002780A231340564A082B00D0F9E00B78012B23D1534B544C1988A14201D8643119805988A14201D8643159809C884F498C4201D864349C80DC888C4201D86434BB
:401E8000DC801C898C4201D864341C815989484CA14200D9CFE064315981CCE0454B464C19882488013189B219808C4200D9A8E000211980414B19783A4B012900D07FE0F0
:401EC0001988394CA14201D8013119805988A14201D8013159809C8834498C4201D801349C80DC888C4201D80134DC801C898C4201D801341C8159892D4C7EE0040300205A
:401F0000BC01002051020020C8010020CA010020C5020020240200207A02002028020020D40200203B02002095020020B701002072020020E404002088020020FA02002026
:401F400082020020EE02002094020020D00200209C02002097020020C7010020FE020020E9010020BC0200203F7E050000030020FF8C270052020020FFFF000060EA00004B
:401F8000C40200204802002080020020960200208C0200203C0200203F02002092020020CC020020CC0100207F0C00005F540000171500002E02002014020020B5010020B5
:401FC0001988554CA14201D8013119805988A14201D8013159809C8850498C4201D801349C80DC888C4201D80134DC801C898C4201D801341C815989494CA14201D801319C
:402000005981484B484C1988A14201D8013119801C88962189008C420DD94449444C0D88A54203D9434D00240C802C800C8801340C800021198013683F498B4203D8013390
:4020400000E0002313603D4B1A7801321A703C4B1A7801321A703B4B1A7801321A703A4B1A7801321A70394B1B78012B03D1384B1A7801321A70374B1B78012B03D1364B15
:402080001A7801321A70354B1A78354B002A09D01A889024511C89B2FF34A14201D9198001E002321A802F4B1B78012B03D12E4B1A8801321A800378DA0603D52B4B1A88C6
:4020C00001321A802A4B2B4A1878117801300131C0B2C9B218701170062805D900201870254B1878C0431870032905D900231370224B1A78D2431A70214B1A78214B012A95
:4021000002D11A88013200E000221A801E4B1A7801321A7070BDC046FF0E00003F6500004F19000040020020DBFF0000FC020020DCFF0000F80200207F380100BD01002072
:402140002C0200206D0200208A02002074020020E10200204702002070020020B601002018020020C70200202A02002098020020780200203102002046020020FB020020D0
:40218000C6010020260200207502002010B53849384B0A78012A68D1374C2278312A01D800220A701B780A2B61D9344B00220A7033481978334B01701970C80709D53249F4
:4021C0000A808A81314A1178013111709179013191711A7891070AD52B4A00215180D1812A4A517801315170D1790131D1711A7850070AD5244A002191801182234A917834
:4022000001319170117A013111721A7811070AD51D4A0021D18051821C4AD1780131D170517A013151721A78D0060AD5164A002111819182154A117901311171917A0131CD
:4022400091721B7899060AD50F4B00225A81DA820E4B5A7901325A71DA7A0132DA720C4802F070F80023237001E000221A7010BD7602002088020020FA02002084020020D8
:4022800010020020DC020020CC010020610200200190000070B5D54BD54A1978D54B012900D0E1E01588D44CA5420AD898780425A843987058781025A843587018780143DF
:4022C0000DE0CE4E0420B5420ED89D78854358789D7010252843587018788843011C1970C7490320087009E09D782843987058781025A84358701878884318705088A04240
:402300000BD8997808208143997059782020814359701978022001430DE0B84C0821A0420ED898788843597898702020014359701978022081431970B149032008700AE0BD
:40234000987801439970597820208143597019780220814319709488AA498C420BD898781024A043987058784024A04358701878042420430DE0A44D1020AC420ED89C7883
:40238000844358789C7040242043587018780424A04318709A48032404700AE09C782043987058784024A043587018780424A0431870D4888C420BD898782024A0435C78C8
:4023C00098707F20204058701878082420430EE08D4D2020AC420FD89C7884439C7080205C7840422043587018780824A04318708348032404700AE09C7820435C78987040
:402400007F202040587018780824A04318701089884207D89878BE21014099701978102001430CE0784C4021A0420DD898788843011C0120014399701978102081431970E2
:402440006F490320087008E098780143012081439970197810208143197052896B498A4200D8FEE06A4905E114886A498C420BD898780424A043987058781024A043587055
:402480001878012420430DE0634D0420AC420ED89C78844358789C7010242043587018780124A04318705648032404700AE09C782043987058781024A04358701878012433
:4024C000A0431870508888420BD8997808208143997059782020814359701978022001430DE04D4C0821A0420ED898788843597898702020014359701978022081431970D9
:402500003F49032008700AE09878014399705978202081435970197802208143197094883E498C420BD898781024A043987058784024A04358701878042420430DE0384DA4
:402540001020AC420ED89C78844358789C7040242043587018780424A04318702848032404700AE09C782043987058784024A043587018780424A0431870D4888C420BD86B
:4025800098782024A0435C7898707F20204058701878082420430EE0214D2020AC420FD89C7884439C7080205C7840422043587018780824A04318701148032404700AE0A4
:4025C0009C7820435C7898707F202040587018780824A04318701089884223D89878BE210140997019781020014328E0B5010020CC010020FC0100205F0900007F0C000023
:40260000C7010020473F00005F540000D10F0000171500003F0B0000FF0E0000EF4B00003F650000214C4021A0420DD898788843011C01200143997019781020814319702F
:402640001B490320087008E0987801430120814399701978102081431970528915498A4207D899787D220A409A701A7820210A430BE011498A420CD899787F220A40022107
:402680000A439A701A7820218A431A700322084B09E09978802252420A43FD210A409A701A7820218A431A7070BDC0463F650000C7010020FB1200004F19000070B5C64B9E
:4026C000C64A1978C64B012900D0BAE01588C54CA5420AD898780425A843987058781025A84358701878014314E0BF4E0420B54206D89D78854358789D701025284305E02C
:402700009D782843987058781025A843587018788843011C19705088A0420BD89978082081439970597820208143597019780220014314E0AC4C0821A04206D89878884370
:40274000597898702020014305E0987801439970597820208143597019780220814319709488A2498C420BD898781024A043987058784024A043587018780424204314E047
:402780009B4D1020AC4206D89C78844358789C704024204305E09C782043987058784024A043587018780424A0431870D4888C420BD898782024A0435C7898707F20204032
:4027C000587018780824204315E0894D2020AC4207D89C7884439C7080205C784042204305E09C7820435C7898707F202040587018780824A04318701089884207D8987862
:40280000BE210140997019781020014311E0784C4021A04205D898788843011C0120014303E098780143012081439970197810208143197052896F498A4200D8BAE06E497D
:40284000C1E014886D498C420BD898780424A043987058781024A043587018780124204314E0674D0420AC4206D89C78844358789C701024204305E09C78204398705878B0
:402880001024A043587018780124A0431870508888420BD89978082081439970597820208143597019780220014314E0544C0821A04206D898788843597898702020014344
:4028C00005E09878014399705978202081435970197802208143197094884A498C420BD898781024A043987058784024A043587018780424204314E0434D1020AC4206D8EF
:402900009C78844358789C704024204305E09C782043987058784024A043587018780424A0431870D4888C420BD898782024A0435C7898707F2020405870187808242043AD
:4029400015E0314D2020AC4207D89C7884439C7080205C784042204305E09C7820435C7898707F202040587018780824A04318701089884207D89878BE2101409970197865
:402980001020014311E0204C4021A04205D898788843011C0120014303E0987801430120814399701978102081431970528917498A4207D899787D220A409A701A782021D9
:4029C0000A4331E012498A4224D899787F220A4002210A4324E0C046B5010020CC010020FC0100205F0900007F0C0000473F00005F540000D10F0000171500003F0B00007E
:402A0000FF0E0000EF4B00003F650000FB1200004F1900009978802252420A43FD210A409A701A7820218A431A7070BD604B10B51A68604B9A4208D95F4B012219781143CD
:402A400019705E4B19780A431A705D4B5D4A19885D4B914201D8012200E000221A705B4B1B88962B08D9544B0222597811435970524B59780A435A7002F004FE012817D1A3
:402A800053490B78002B08D0524B534A1888904226D900220A701A8022E0504B022218704F4B1978114319704E4B19780A4316E04A490B78012B06D14B4B1A781E2A0FD9E4
:402AC00000220A700BE0424B01221A70444B0222197891431970434B197891430A1C1A7002F0C8FD01281CD1404B1A78012A04D13F490A78052A5AD91BE03E4A0023137052
:402B0000374A40249178214391703B4A042111703A4A10703A4A1370324B1A7882431A7045E036490B78012B06D1364B1A780A2A3DD900220A70F2E7294B40219A788A43FE
:402B40009A70284A01231178194311702A4A02211170264A13702A4B1A78191C002A07D1294B1A78FD2A01D801321A7001230B70204B1A78191C002A19D1244B9B785A077B
:402B80000AD41A0708D4DA0606D49A0604D45A0602D4DB09012B0AD11D4B1A78012A06D801321A701B4B03221A7001230B7010BDCC0200203F1901007C0200208C02002013
:402BC00036020020C30900003F02002092020020240200207A020020B80B0000C50200209C020020F40200205102002028020020D4020020CA020020D80200203B02002046
:402C00009102002095020020EC020020FC01002077020020C701002008B50B4B1878052811D803F045F8030507090B0D002008E0012006E0022004E0032002E0042000E047
:402C40000520FEF71BFE08BD4202002000B5042837D81C4B1022D97803F02AF803070E1926000A43F9210A400CE091430A1C04210A4302218A4305E091430A1C04218A43E8
:402C800002210A43DA705A7808218A4307E091430A1CF9210A40DA705A7808210A435A701A7820218A430BE091430A1CF9210A40DA705A7808218A435A701A7820210A430C
:402CC0001A7000BD9C0200202C4B10B59B782C4A58070AD4190708D4D80606D4990604D4580602D4DB09012B02D10023138044E0244B04201B78191C014008D0224C247833
:402D0000044204D120490978480710D508E00220034227D01C4C2478044223D10029F1D102210B4208D018480078084204D1174900230B70138006E001210B4203D0124B96
:402D40001B780B42F3D01188114B994215D9002303201380FFF77AFF0E4B7F2219780A401A700AE00120034203D0074C24780442D4D0064801240470D0E710BDFC010020C7
:402D8000260200200E0300200D030020C6010020B70B00009C02002008B50C4B1B88632B12D802F03DFF0A4B012802D100221A700AE01B780A2B07D9064B0C22D978012026
:402DC0000A43DA70FFF742FF08BDC04652020020750200209C02002008B5054B1A78D10705D401210A4302201A70FFF72FFF08BD2002002008B51C4B1A7801231A4207D0CE
:402E00001A490978194003D119480370194B197004231A4208D015490978194204D1144901230B7013490B7002231A4208D00F4A12781A4204D10E4A012111700D4A137041
:402E400002F020FC002804D1094B0120187002F021FC02F00FFC002804D1054B0120187002F024FC08BDC0460E0300200D030020C701002087020020F7B5B64C032223780B
:402E8000990612D463781A0701D500220DE0E3789A07D10F002A02DAAF4B197007E00222590702D4DA0602D50522AB4B1A70AB4D01232A781A420DD0A94A12781A4209D1FE
:402EC000A84A02201370227880235B4213432370FFF7BCFE2678F609F3B2012B00D0E8E029780422A04B11420ED09D49097811420AD01A780A2A09D900229C481A7001F022
:402F000021FA984B1E7001E000221A702378990600D4A3E05B06D90F6A46CFB21170002F00D09BE02A780223914E1A420CD08C4A12781A4208D00420FFF788FE6B468D4AD8
:402F40001B78178033700FE08A4B012219882C23FF333270994207D900233370864B197891431970FFF738FF2B7802273B4235D07B4B1B783B4231D08048012301788C4610
:402F800062467F49322A22D9764D7E4A2B70137063784022134363707B4C002522787B4B0D705100CD52911D05704800C552784B985C013098545A5C764801325A5401F066
:402FC000C1F9381C3570FFF741FE2570C1E00B706C4900220B70704B1A703FE06E4A1378012B3BD95F4B0121197000231370644A1370644A1370614A1370634A117801310C
:40300000C9B2052901D8117000E013706378402110780B4363700022604B05280CD8604A02F046FE03070C10141800211170012202E00121117002221A708AE0022111702F
:403040000422F9E7032111700822F5E7042111701022F1E7052111702022EDE729780222504B11421BD03E490978114217D01B78012B4BD926884C4B1E4047D1394B01250A
:4030800004201D70FFF7E2FD23784022134323703D4B1E70424B1E70404B1D7059E0217840229143217061789143002261701A702CE03E4B1A883E4B9A4218D8012001F0FA
:4030C000EBFE287802223B4B10420AD024490978114206D00422104203D0114201D0012204E0A27801218A43A27000221A70324B1B78312B0AD92F4B00221A702F4A01230B
:403100001370184A2E48137001F01CF92D4B1A78181C012A1DD12A7802231A4203D010490978194206D004231A420DD00C4A12781A4209D10B4B01221A70234A00230370D7
:40314000137000F04BFC04E0204A1188184A9142F0D8F7BD9C020020E00200200E0300200D030020C70100202C020020C2CC0000B601002018020020200200207002002033
:4031800074020020470200205A020020CC0100206102002001900000E102002010020020850200206D0200202040000052020020B70B000094020020D00200203402002094
:4031C000016000008202002030020020EE02002008B5054B00221A70044B9622920003201A80FFF733FD08BD5A020020140200202F4BF7B500221A702E4B02221C789878A9
:4032000014431C7004217824084364422043987058788843011C91435970274B1E2227481A7001F08FF8264F90235B003B80254EC0235B00244A3380A2231B011380234A25
:40324000234D1380234A28881380A223224A9B00138002282BD9EB880193642B27D90C246421604302F07CFD388068886421604302F076FD3080A8886421604302F070FD19
:40328000114A642110800198604302F069FD0F4B642118802889604302F062FD0D4A642110806889604302F05BFD0B4B1880F7BD560200209C02002072020020C0CC0000AC
:4032C0004C020020320200201C02002044020020A0020020C2020020D202002000B5144B1878072822D8134B0122197802F0E0FC10100404170710170A43F1210DE0914394
:403300000A1C02218A4304210A4308218A430CE091430A1C02210A43F3210A4005E091430A1CF9210A4008210A431A7000BDC0468902002004020020F0B585B0FFF72CFD8B
:40334000C54CE37818070CD501F0DCFA01F034FA01F018F801F026F8FFF74CFDFEF716FFCEE1BE4FBE4B3A881A4205D002F000FABC4B05221A7003E0FFF7A6FCFFF77CFD5C
:40338000FFF79CF9FFF752FB01F0BCFA01F014FA00F0F8FF01F006F8FEF7F8FEB24D2B78590709D504229343B0482B7000F0CAFF9020000200F0C6FF627806231340042BC4
:4033C00007D10024A74B201C1C7002F063F9201C14E1022B02D19A436270A7E0A44E3378002B0DD0A34A01231370A34A00241470A24A1370A24A137000F0F0FA34707FE1D8
:40340000A3785907C90FCEB2002E4BD09D4E33781A1C0B3A012A05D8964B01221A70FFF7FBFB26E01A1C103A012A13D8964B187804281ED8954B02F03BFC030507090B0082
:4034400000220DE001220BE0022209E0032207E0042205E01A1C133A082A03D8814B04221A7006E01D2B04D1894B01221A70FFF7AFFE33781A1C1F3A012A06D823789A0759
:4034800054D57C4B02221A7050E0212B4ED923789B07DA0F002B49DBA37804218B43A370327043E020787B4A80070ED50026301C167002F0EFF8301C02F0F8F823780822E5
:4034C00093432370744B1E7030E03878C007EDD478788707EAD41807C00F6F463870C7B2012F21D16C4AC0B210706C4A944610886B4A90420AD8381C02F0CCF8381C6F4660
:4035000002F0D4F8674B3F781F700FE0082083436148A37001706146301C0E8002F0BAF8301C02F0C3F801E001231370594B1B78002B00D1E4E05C4B1F78312F05D9A37897
:403540005A0602D510221343A370584B584A1868904204D9A37810221343A37001E000221A6062781207D20FD6B2002E1AD04D4A012313703B4A002111704E4A12781A427B
:4035800004D04D4A12781A4200D1B6E0A3785B06DB0F00D0B4E0494A13806378082293436370ADE0A378D806C00F2AD03B493A48098801258C463A4905708C4509D8394BA9
:4035C0000822281C1A7002F071F8281C02F062F80CE01025AB43A370304B02701E80032F01D9314B1A70002002F060F8A3785806C00F00D084E010229343A37002F056F8E8
:403600007EE05B06DE0F61D1012002F043F8301C02F04CF82B7802221343227808210A432270DA07D20FD2B22B70012A08D193430E482B7000F086FE9020000200F082FEDB
:403640001F4B1A68FA235B009A4259D91D4B1A881D4B1A8054E0C0469C0200208C02002001020000E0020020480200200290000034020020C7010020D00200208202002051
:4036800030020020970200204202002085020020560200203A020020C70200202A02002057020000D8020020EC02002000030020FF8C27000E0300200D030020260200200C
:4036C000CC0200204E020020E402002001F0E2FF2B7801221343227808218A432B7022709F070DD50222934306482B7000F02AFE9020000200F026FE02E0034A137045E794
:4037000005B0F0BD02900000C701002008B5012002F0C6F8014B01221A7008BD0403002008B501F0FFFD01F075FE08BD10B501F0E9FE01F0A3FD01F077FC0028FBD1134C82
:40374000134B22781A7001F039FF23780122002801D0134300E093430120237001F02EFF02232278002801D0134301E09A43131C0220237001F022FF04232278002801D08D
:40378000134301E09A43131C237010BD0E0300200D03002008B5034801F0C2FB02F072F808BDC0460D3700007047000070B51A4D0021281C1F2202F064FB0024E0B2FEF7FF
:4037C0001BFA285501342C2CF8D10023134AE818991846780C88007834432402204302330880141C182BF1D10023E21810889189884201D3908100E0118002330C2BF4D1D4
:403800006A7E074907480A70AB7E03709A4201D3027000E00B7070BD9E030020A0020020E20200203E02002010B50D4C0021201C1F2202F026FB0023201C0A4AD15AC218D3
:4038400011700233090A5170182BF6D1064B1B7843768376054B1B78C376FEF7BFF910BD9E030020A0020020E20200206F020020F8B5334C0021201C1F2202F002FB002592
:40388000E8B2FEF7B5F9605501352C2DF8D100232C4AE018991846790D88007935432D022843023308809446182BF1D10023264AE0189918C57F08780133284308700C2BB3
:4038C000F5D1224EE2783388214D1A43A37812021A4392B23280617F2B8820780B43217F1B020B431B499BB22B80087060781A4F3870A17F194C2170884201D3207000E0CB
:4039000039709A4201D32A8000E0338000236146CA1810889189884201D3908100E0118002330C2BF3D1084B981D19789A79914201D3997100E01A7001338342F5D1F8BD08
:403940009E030020CC01002061020020FC020020F8020020B5010020EC020020CB02002010B5164C0021201C2B2202F08AFA0023134AD15AE21811710233090A5171182B52
:40398000F6D1104B201C1B880F49A3701B0AE3700E4B0C221B881F3023771B0A63770C4B1B7823700B4B1B7863700B4B1B78A37702F05EFA201CFEF707F910BD9E030020CC
:4039C000CC010020FC02002061020020F8020020B5010020EC020020CB020020002210490023511801320B702C2AF8D10D490022591802330A80182BF8D10B4900235118E6
:403A000001320B700C2AF8D1084A01211370084A1170084A1380084A1370084A138070479E030020CC01002061020020EC020020B5010020FC020020CB020020F80200207F
:403A400008B5002001F032FE002001F023FE002001F09CFE01F0D2FA01F0E6FE01F05AFEFDF7CAFEFDF79AFDFDF7C4FD08BD000038B500230D480022C2540133DBB21E2B28
:403A8000F8D955000A4C01320023D2B22B530B2AF7D9084C08492270084A137001220A70074902700B80FEF78FF838BD9E030020CC0100201A020020B5010020EC020020F8
:403AC000FC02002008B501F0BDF8082001F056F901F0AAF808BD000070B50A21051C02F0F1F8A92384B25B009C4202D8132C1FD901E05424FF34231C143BEB2B04D80D4B89
:403B00001B5D1C19A4B213E0621E0B4BFF3A5200281C0A21D65A02F019F988B2032102F0D1F82418A419054BA4B29C4200D9044C201C70BD985E0000985F0000E203000091
:403B4000E703000008B50A2102F0BCF880B24E2806D8132805D80A4B28331B5CC01A08E04F20031C143B092B07D9054B28331B5C181880B2612800D96320C0B208BDC046AF
:403B80001860000000230139054A89B2914204D0027801309B18DBB2F5E75B42D8B27047FFFF000038B53C4A031C1078111C0B286FD83A4A02F07CF8060B11171B1F252BEE
:403BC000343A485BFA2B65D10120087062E0FB2B01D10220087053705DE0002B01D103200870937057E004200870D37053E00520087013714FE02A48537103700620087071
:403C000049E02848937103800720087043E02548D371048824021C190480082008703AE02148137203800920087034E01E4C20880002181880B22080002801D00B2000E08C
:403C40000A200870537226E0101C64300488592C21D812199372002303800B70134B04211A7801200A431A7001F03CF913E0141C64342088582803D815180130AB722080B0
:403C8000094B643212881B889A4204D10A230B7001E00023137038BD0C0500207E040020500400207204002038040020E804002010B53F49031C08780A1C0B2874D801F041
:403CC000F7FF06131A21262B3239434A590CFA2B07D101211170374A04E03649C88B122857D90023137061E0FC2BFAD102211170304A53705AE0002B01D1032111702D4A7E
:403D0000937053E0042111702A4AD3704EE005211170284A137149E027490B7006211170244A537142E025490B8007211170214A93713BE02149088800021818088008210C
:403D400011701C4AD37131E01D490B8009211170184A13722AE01A4801880902591889B20180002901D00B2100E00A211170114A53721BE00F49C88B1328B2D80818837205
:403D80000023CB8313700F4B02211A780A431A700CE00C18A3720A4B01301B8880B2C883834203D10A239DE700230B7010BDC0462F040020520400203A040020F404002064
:403DC0002C040020E8040020074B10B51A78082422431A70054B01391980054B00221A80044B186010BDC046F80400207C0400203C04002074040020044B1A680F231340D0
:403E0000082BF9D0024B18607047C046080206404002064008B50C4B9B78DB0912D00B490B4A0988138801318B4206D00949581C09681080C85CFFF7DFFF074B08211A78C9
:403E40008A431A7008BDC0469C0200207C0400203C04002074040020F8040020F7B5284C0F1C061C0192201C002164221D1C02F008F8FA232370FB2363703B0AA3712B0A71
:403E8000E7716671237265721E4F002E0AD13B78042213433B701C4B46221A701B4B0A221A7008E0802E06D1194B00221A703B78042293433B70201C002D0DD001992A1CA5
:403EC0000A3001F0D5FF291C0A3189B2201CFFF759FE6319987203E00A21FFF753FEA0723B78082213433B7072B60B35A9B2201CFFF76AFF62B6002000F0F4FFF7BDC04681
:403F00002C010020F8040020B7010020E4040020EC04002007B520236A46137001235370D3708023002053710349062390701071FFF794FF07BDC046C0CC00001FB5002379
:403F400069460B704B70194B1B788B700623CB70174B1B780B71174B96211868890001F0B1FE154B69461B886A465071CB711A0A124B8A711B8880201A0A4B72104B0A72FD
:403F80001B881A0ACB720F4B8A721B780B730E4B1B881A0A8B730D4B4A731B786A46CB73B2211023FFF75AFF05B000BDD80200200C020020CC020020FC020020380200208D
:403FC000E40200207102002036020020F40200201FB5002301AA137053700B4B80201B7893700A4B1978D1705978117199785171D97891711979D1715B79B5211372092377
:40400000FFF72CFF05B000BD100200206102002010B586B06A46002313705370084B68461C78084994706400221C033001F020FFE31C8020B4216A46FFF710FF06B010BDA9
:404040000C0200203E0400201FB5002368460370437006238370104B1A88110AC17002715A88110A417182719A88110AC1710272DA88110A417282721A89110AC1720273FE
:404080005B89B5211A0A427383736A4680200F23FFF7E4FE05B000BDCC01002007B5002301AA137053708020A3210223FFF7D6FE07BD000007B5002301AA13705370802067
:4040C00002490223FFF7CAFE07BDC046D0CC000007B5094901AA097800231370FE2901D1537001E0052151709370802003490423D070FFF7B3FE07BD6F020020D1CC0000D9
:4041000007B5002301AA13705370802002490223FFF7A4FE07BDC046D6CC000007B5002301AA13705370802002490223FFF796FE07BDC046D2CC000007B5002301AA1370BC
:404140005370044B80201B78B12193700323FFF785FE07BDB501002007B5002301AA137053708020A2210223FFF778FE07BD07B5002301AA137053708020A4210223FFF714
:404180006DFE07BD07B5002301AA137053708020A0210223FFF762FE07BD07B5002301AA137053708020A1210223FFF757FE07BD08B500200249021C031CFFF74FFE08BD8D
:4041C000C2CC000008B500200249021C031CFFF745FE08BD0160000007B5802301AA00205370034902231070FFF738FE07BDC046C5CC00001FB51A4B69461B780B70194BAE
:404200001B784B70184B96211868890001F05AFD6A460623D370154B69461B8890704B711A0A134B0A711B8800201A0ACB71114B8A711B881A0A4B720F4B0A721B788B72DA
:404240000E4B1B881A0A0B730D4BCA721B786A464B73902109020E23FFF700FE05B000BD0C020020D8020020CC020020FC02002038020020E4020020710200203602002039
:40428000F402002007B5062369460B700B4B00201B784B700A4B1A788A705A78CA709A780A71DA784A711A798A715B796A46CB7104490823FFF7D2FD07BDC0461002002007
:4042C00061020020019000001FB5062368460370104B1A88110A417082705A88110AC17002719A88110A41718271DA88110AC17102721A89110A417282725B8906491A0A6F
:40430000C27203736A4600200D23FFF7A7FD05B000BDC046CC0100200290000008B500200249021C031CFFF799FD08BDF090000008B500200249021C031CFFF78FFD08BD60
:40434000F990000010B5054A1378042B04D804495C0001336052137010BDC046EC040020FC04002010B5054A1378072B04D804495C0001336052137010BDC0460C02002035
:404380003E040020054B1A78510706D504490978002902D101210A431A707047F8040020B7010020334B0C22197870B511421ED1314A1278002A1AD1304D2978002916D02D
:4043C0002F4C304826880680481EC0B22870002804D11A7801210A431A7008E0501C4500655B5200A552C2B28A42F7D1F1E71A78D1073DD501218A431A70224B224A1B88AB
:40440000934233D013D890221202934228D005D81E4A93422CD1FFF7D5FE29E01C4A934221D01C4A934223D1FFF74EFF20E01A4A93420FD005D8194A934219D1FFF778FF1B
:4044400016E0174A934208D0164A934210D1FFF7C3FE0DE0FFF75EFD0AE0FFF7A9FE07E0FFF7C8FE04E0FFF70DFF01E0FFF756FF70BDC046F8040020E4040020EC0400208A
:40448000FC04002014050020F0900000016000000190000002900000C0CC0000F9900000C2CC0000C5CC0000614B70B51A78510700D4BBE05F490E88592E00D9B6E05E4C63
:4044C000311C04250A31AA4389B2201C1A70FFF759FBA619B37A834200D0A7E0574B1B88B22B58D01BD8A22B5ED00ED8A02B00D194E0A12B00D099E0514B5A78154302229E
:4045000095435D70FFF749FE90E0A42B72D000D27BE0B12B00D089E0FFF70EFE86E0494A934213D008D8B42B38D03AD3B52B00D07CE0FFF74DFD79E0434A934216D018D377
:40454000424A934272D1FFF7DBFD6FE0A37A404A1370032B07D13F4A1378002B03D1012313703D4A1370FFF7A5FD5FE0FFF7D6FD5CE0A27A394B1A70394BFE221A7072B62A
:40458000FFF752F9FFF7ECF962B6FFF7A1FD354B01221A704AE0FFF7D1FC47E0FFF738FD44E0FFF751FD41E0E27A217B2E4B12028A181A80627BA17B12028A185A80E27B97
:4045C000217C12028A189A80627CA17C12028A18DA80E27C217D12028A181A81627DA17D12028A185A8172B6FFF71EF962B6FFF7B3FD1BE0184A01231370A17A1B4A117070
:404600001B4A1370FFF7B3FD10E0A27A194B012A00D000221A70FFF741FD07E0084B02215A78AA430A435A70FFF7ACFD70BDC046E8040020380400207E04002072040020FC
:404640009C020020D0CC0000D2CC0000D6CC000089020020C0020020C7010020E20200206F02002080020020A00200208402002076020020B501002038B5144B1A785107E8
:4046800023D513490D88592D1FD804218A43114C291C0A3189B2201C1A70FFF773FA6519AB7A834211D10C4B1A880C4B9A420CD1A37A0B4A1370032B07D10A4A1378002B09
:4046C00003D101231370084A137038BDE8040020380400207E04002072040020D0CC000089020020C0020020C7010020244B70B51A78510742D523490D88592D3ED8224C24
:40470000291C04260A31B24389B2201C1A70FFF739FA6519AB7A834230D11C4B1C4A1B88934223D00DD89022120293421ED001D8184A03E0184A934218D0184A934215D048
:404740001CE0174A934207D001D8164AF6E7164A93420BD0154AF1E76389002B0ED1144B1A78B2431A70227B124B06E06389002B04D10F4B04211A788A431A7070BDC04606
:40478000E8040020380400207E04002072040020F0900000016000000190000002900000C0CC0000F9900000C2CC0000C5CC0000F804002089020020F8B52E4D2E4E2B7813
:4047C0009A073FD52D4A1788122F3BD82C4C391C02220A31934389B2201C2B70FFF7D2F9E719BB7A83422DD11E233370254B1A8880235B019A4225D1A27BE37B12029A18C5
:40480000214B1A80227C214B1A70627CA37C12029A181F4B1A80E07C237D000218181D4B80B21880637DA47D1B02E4181A4BA4B21C80FFF751F9194B1880201CFFF782F95D
:40484000174B18803478002C13D11E2232700C4E211C301C01F015FB124B02221C70094BF4831C80054B1C802B7893432B70FCF7E1FEF8BDE8040020720200202C040020D1
:4048800052040020F40400203602002071020020540200203404002036040020380200204E0200202F040020124B10B55A781C1C90070CD5104B5A78910708D402210A4385
:4048C0000E485A70FFF74EFD0C48FFF73BFD2178C907C90FC9B201290BD1074B1A78D00707D40A4306481A70FFF73CFD0448FFF729FD10BD7C0200205C020020F99000004F
:40490000F090000010B5074B1A781C1C7F2A01D9FFF7ECFE23785A0601D5FFF7ADFEFFF7C3FD10BD50040020FEE7000070B51048104B0138421C15D01E685C689D680022A0
:40494000A118AA4203D0B158A1500432F8E7DA680D1C4C1B944202D0002410C1F9E710330138E7E701F05EFAFCF7B0FEFEE7C046010000008861000008B500239A00032BB0
:4049800002D80D49895800E00C490D4801338150302BF3D1FCF7C4FB0A4B00221A600A4B1A68002A00D11A608023DB051A6801210A431A6008BDC04600110000294900000D
:4049C00000000020C8000020C00000200C4B1A68191C002803D080231B06134301E053005B080B60074B1A68191C002803D080239B04134301E0044B13400B607047C04663
:404A000080031A4008010B40FFFFFFFD08B5034B40221A6000F01EFA08BDC046C00000200230800804D0C0460138FDD1C046C046C0467047EFF3108072B6704780F31088F1
:404A40007047C046C046C046F0B50024CBB0069404900794FF2800D9A4E0A14200D1A1E008AD8022281C01F003FA231C211C221C029498002858002802D0121801430293B9
:404A80000133202BF5D1002A05D1002900D08EE00191039102E0002001900390484F7F2328AE291C80222AA82897464C736001F0DFF9454A454B266013602168090F0A295D
:404AC00003D022680F23134000E000230693069F002F69D1FFF7AEFF3D4A3E4B116807971960069B0590002B14D13B4A04982892289A01040A43289228AA22603249374AA8
:404B00000A602268120F0A2A03D02E4B1A680F2313400693069F002F38D1019A002A35D0391C8022281C01F0ACF90298039A08A983005A50224B2AA8289380227F237360A2
:404B400001F096F9214820492660086023681B0F0A2B03D01B4B1F680F231F400697069B002B13D11E4A04982892289A01040A43289215491B4A26600A602268120F0A2A4F
:404B800003D0104B1A680F2313400693079B002B04D1104A0E481268026007930598FFF74DFF01E00423069306984BB0F0BD02998B00E85801210390EA5001916EE7C04657
:404BC000B6D7000008000040040000400400008008010B4090010020B6D8000005000080B6D900000600008010B5041CFFF722FF064B1968182C02D8054A0A4002E08022E2
:404C0000D2020A431A60FFF719FF10BD00010B40FFFFFBFF034B8022196812060A431A607047C04604010B4008B5FFF703FF044BC022196812020A431A60FFF7FFFE08BD63
:404C400000010B4010B5FFF7F5FE084B084A196880241140E4012143196019680A40802109020A431A60FFF7E9FE10BD00010B40FF3FFFFF022800D901BE044BC0001B6899
:404C80000130C340181C01231840704710020B4038B5041C0D1C022800D901BE201CFFF7E9FF00280BD1064B0322E4001968101CA04081431540A5400C1C2C431C6038BDF9
:404CC0000C020B4038B5041C0D1C012800D901BE201CFFF7CFFF00280AD1064BE40002341A680121A1408A43A540141C2C431C6038BDC0460C020B4010B5041CFFF78AFFEC
:404D0000094B1A6822431A60E10702D51A689107FCD5E20502D51A689105FCD5E20302D51A689103FCD510BD10020B4038B5041CFFF780FE0D4B051C1A68C0231B021340D1
:404D40000FD10B4A0B4910680C400B4901400C431460012B01D1FFF767FF281CFFF76EFE38BDFFF76FFF0123EBE7C04600010B4010020B4004040400FBFBFBFF034B0449F9
:404D80001A680840104318607047C04610020B4008080800084B1E221968400091431040084318601A6801210A431A60034B02211A680A431A60704718000B4008000B405F
:404DC0001F2800D901BE034A80008318186819607047C0464000002038B5041C0D1E032D00D901BE1F2C00D901BEFFF723FEA308084A9B009B180322144094401968063409
:404E0000A2409143A5400C1C2C431C60FFF716FE38BDC04600E400E01F23184001238340181C014B1860704700E100E01F23184001238340181C014B1860704780E100E099
:404E40001F23184001238340181C014B1860704780E200E0034B04491A6892B20A431A607047C0460CED00E00400FA0510B5041C8022074B1202944205D91868FFF7D0FD1B
:404E8000044BE418F4E758686043FFF7C9FD10BDD40000200080FFFF08B5034B1B7A5843FFF7BEFD08BDC046D400002038B5041C0D1C012800D901BEC920FFF7EDFF074BAF
:404EC00007491A682401A1408A43A540141C2C431C604320FFF7E0FF38BDC04608020B40FFFF0000044B4022196880019143C9B202400A431A6070470000044010B5041C9C
:404F0000FFF798FD054BA2011968C024A1430C1C14431C60FFF792FD10BDC04610E400E010B5064B802464021C60054B0433D8670320FFF7E3FF034B1C6010BD80E100E04E
:404F40000000002000E100E0134B10B51968134A0F241170124A201C117812782140A2430A431A600F4A104B1A60104A104B1A60104B114A19680A40C021C9000A431A6094
:404F8000FFF754FF201C0D49FFF71AFF201C0321FFF722FF10BDC04600FF08401605002062F1FF0F00020001080008400008A0010400084010000140FFF0FFFFE955000016
:404FC00008B500F0AFFD00F091FD0020011C00F095FD0020011C00F0ADFD00F099FD00F07BFD044B04491A680F200A431A60FFF713FF08BD040008400010088008B50F20A5
:40500000FFF714FF064B074A19680A401A601A68520052081A6000F085FD00F067FD08BD04000840FFEFF7FF024B1878012318407047C0469401002070B5104C23181E7BFD
:40504000231C0F33B6001D5CA419FFF7F3FC6369AA001968D2B20F269640B14304269640314303267543A26AEDB214680726AE40B44314601960FFF7E1FC70BDE8600000A1
:40508000F8B5174B0F261A18157B1A1C0F32AD00145C5D19134A6B69125CA0001968C0B28640B14319600327531E67435A1E93415B4206261E40FFF7BDFCAB6AFFB21A68CC
:4050C0000721B9408A43BE4016431E60FFF7B6FCEB6B01211A68A1408A431A60F8BDC046E86000001805002008B50020FFF7C8FF0120FFF7C5FF0220FFF7C2FF08BD0000D0
:40510000F8B51F4D041C2B1C50331B5C00219B005E592B1C5333185C5635013880B200F0EDFC285D0021013880B200F003FD0F20FFF77CFE134B144A1D681448115D28405F
:4051400003320843115D021C09040A43104D1A602F68104B0F201F400F4B1F43FFF75CFE201CFFF769FFFFF765FC2F60041C0020FFF756FC094B201C1E60FFF75FFCF8BD4A
:40518000E860000008000840E400002000FF80FF04000840FF1FDFFF200020000C00084008B5054B00221A70C2B21A7281221A70FFF7A6FF08BDC0469401002008B50E4BE2
:4051C000420019680D4B0233D152FFF759FF0F20FFF72CFE0A4B0B4A19680F200A40A02109020A431A60084B084A19680A401A60FFF712FE08BDC0460C00084094010020A4
:4052000004000840FF1FDFFF0800084000FF80FF034B03211A68084040021043186070470400084010B5064B00241C705C709C70FFF78AFE201CFFF7EBFFFFF755FF10BDBD
:405240001805002007230B40C908405C01229A401040431E9841704710B5041C0134E4B2032C06D00448211C0630FFF7EBFF0028F4D0201C10BDC046E400002010B50B4C62
:4052800000232370FF232372207AC0B2FFF7E4FF2072237A022B07D82378012213432370207AC0B2FFF72CFF10BDC0469401002010B50724CB08214001248C40C018E1B285
:4052C0000378002A02D01943017001E08B43037010BD000010B5041CFFF762FF034B1A78D107FBD402336400185B10BD94010020F7B500231418071C019123700826802514
:405300002378381C2B432370FFF7E4FF019B984202D22378AB432370013E6D08002EEFD1F7BD000070B51F4C637A002B03D1FFF779FF01236372FFF743FE1B4B1B4A196892
:4053400000240A401A601D1C194B64211A1C5032A25C9200D0585523000C584300F0B2FC144E011C321C201C0134FFF7C1FF321C032CE9D10023D15CD01C4C0801314908B8
:405380001C54D1540133032BF5D12A6880235B0413432B60084B80221968D2030A431A6070BDC0469401002008000840FFFFFFFCE8600000E4000020040008400A4B70B566
:4053C0001C5C0A4B4200D15A094B00259E1D35541E1C093635540748D152005D1B191873054BD15270BDC04638610000960100209E010020506100002005002010B5041C96
:40540000FFF7CEFEFFF710FE0028FBD1201CFFF7D5FF10BD08B50020FFF7F0FF0120FFF7EDFF0220FFF7EAFF08BD00002D4BF7B52D4A1B5C0332D35C041C42002B48019375
:4054400001782B4BD35A002906D02A49555AEB186D005B199B085352274F0026B95A8B4205D3264A5D1A1655ADB2012213E0CD1AADB2142D0ED9214F01303B5D025D9A42C6
:4054800004D8201CFFF79AFF3E5501E001333B55321C17E0321C019EB54203D9132D11D8002A0ED1164E0802365D0643711A1448CB181E0A61000355104B7E520021195527
:4054C00000E001220C4B019E0933B54206D9002A04D0FF22FF2D02D81D5501E000221A55F7BDC0463861000050610000F800002096010020200500209E0100201C05002080
:40550000A401002010B500240648211CFFF79AFE002802D0201CFFF789FF0134032CF3D110BDC046EA000020214BF0B51D5C214B85B05A19127B204E01921A1C0F32371CF5
:40554000041C525D5B5D1037381C211C02920393FFF778FE331C09331A5D00280BD001980299431A9A421ADA381C211C0022FFF79FFE751911E001980299751943189A4212
:405580000BDB2B7B013BDBB22B73002B07D1381C211C0122FFF78CFE01E0039B2B73301C211C1030FFF74EFE431E984105B0F0BD38610000506100009E010020094B70B57B
:4055C0009A1D0933145C1E5C00253619201CFFF7ABFF002800D001250134B442F6D3281C70BDC0465061000070B50F20FFF71EFC164B174D01261E602878C0B2FFF7DEFD93
:40560000144C23785BB2002B03DA2378B343237018E02878C0B2FFF71FFE28702B78022B04D82878C0B2FFF76BFD0BE02378B343237023785A0605D5074B1A78074B1A70C1
:40564000074B1E700F20FFF7E7FB70BD140008409C0100209401002017050020EA000020B0010020024B18680007C00F7047C04604020440024B18680006C00F7047C04628
:4056800004020440024B18684006C00F7047C04604020440044B1022196800019143C9B202400A431A60704700020440044B2022196840019143C9B202400A431A607047FD
:4056C000000204400C4B8022D2041A601A680B491A6000220A6019681960094B0C211960084B1A60084B31221A60084BFA221A60074B7D221A60704740010540480105403F
:40570000640105407801054068010540540105404C01054008B5FFF78DF9044B02211A688A431A60FFF78AF908BDC0460000054038B50C1C051CFFF77DF9034BA5401D60D8
:40574000FFF77CF938BDC0460800054010B5FFF771F9064B02241A6822431A60FFF76EF9201C1821FFF7E4FF10BDC0460000054010B5054C2378002B03D1FFF7A3FF01234A
:405780002370FFF7E3FF10BDB1010020044B1022196800019143C9B202400A431A60704700030440014B18647047C0460000002010B5041CFFF73EF9054BA2011968C02477
:4057C000A1430C1C14431C60FFF738F910BDC04600E400E0014B01221A60704700E100E0014B01221A60704780E100E0084A00231360084A0C211160074A01211160074ABD
:4058000064211160064A32211160064A13607047000105402401054038010540140105400C0105400801054008B5FFF703F9044B01211A688A431A60FFF700F908BDC04619
:405840000000054038B50C1C051CFFF7F3F8034BA5401D60FFF7F2F838BDC0460800054010B5FFF7E7F8064B01241A6822431A60FFF7E4F8201C1821FFF7E4FF10BDC04690
:405880000000054010B5054C2378002B03D1FFF7ADFF01232370FFF7E3FF10BDB2010020014B18607047C04630010540014B58677047C0460000002038B5041CFFF7BAF88E
:4058C000054B06491D68A2032C1C0C4014431C60FFF7B4F838BDC0460CE400E0FF3FFFFF024B802292011A607047C04600E100E0024B802292011A607047C04680E100E05B
:40590000184A194B10B51A60184B00241C60184B01221A601749184B07200B601749086017490B200C6017490A60174A1360174B1C60FFF77BFA0B200321FFF74DFA14497B
:405940000B20FFF73DFA134B04221C60124B1C60124B1C60124B1C60124B1A60124B1C6010BDC0460B00000200000740400007404800074000030740070000800403074038
:40598000100307404400074000020740040207405D5C0000880E0740C80E0740480F0740080F0740C80F0740880F074010B500F04DF9041C00F042F9094B002803D01C60B0
:4059C00000F036F902E0074A10681C60064AD82311689B0013600B401B02184310BDC046C80F074040030740C00F0740184A194B10B51A60184B00241C60184B01221A6033
:405A00001749184B07200B601749086017490A200C6017490A60174A1360174B1C60FFF705FA0A200321FFF7D7F914490A20FFF7C7F9134B04221C60124B1C60124B1C60DF
:405A4000124B1C60124B1A60124B1C6010BDC0460B000002000006404000064048000640000306400700008004030640100306404400064000020640040206409D5C0000D6
:405A8000880E0640C80E0640480F0640080F0640C80F0640880F064010B500F0F7F8041C00F0ECF8094B002803D01C6000F0E0F802E0074A10681C60064AD82311689B0049
:405AC00013600B401B02184310BDC046C80F064040030640C00F0640034B8022196812060A431A607047C04600000240024B1A68520052081A60704700000240034B1A68D5
:405B0000120C1204104318607047C04600000240034B8022196812060A431A607047C04640000240024B1A68520052081A60704740000240034B1A68120C120410431860DB
:405B40007047C04640000240044B2022196840019143C9B202400A431A60704700000440044B08221968C0009143C9B202400A431A60704700000440044B202219684001E0
:405B80009143C9B202400A431A60704700010440044B08221968C0009143C9B202400A431A60704700010440044B1022196800019143C9B202400A431A607047000004402D
:405BC000044B1022196800019143C9B202400A431A60704700010440044B0422196880009143C9B202400A431A60704700000440044B0222196840009143C9B202400A4373
:405C00001A60704700000440044B4022196880019143C9B202400A431A60704700010440024B18684007C00F7047C04604030440014B18687047C04640030740024B18681D
:405C40000F2318407047C04608030740024B002218681A607047C046C80F074008B5034B1B68002B00D0984708BDC04628010020014B18687047C04640030640024B1868EC
:405C80000F2318407047C04608030640024B002218681A607047C046C80F064008B5034B1B68002B00D0984708BDC0462001002002B4714649084900095C49008E4402BC50
:405CC0007047C046002934D00123002210B488422CD301242407A14204D2814202D209011B01F8E7E400A14204D2814202D249005B00F8E7884201D3401A1A434C08A04200
:405D000002D3001B5C0822438C08A04202D3001B9C082243CC08A04202D3001BDC082243002803D01B0901D00909E3E7101C10BC7047002801D00020C04307B4024802A10D
:405D40004018029003BDC046D90000000029F0D003B5FFF7B9FF0EBC4243891A1847C046002941D010B4041C4C40A44601230022002900D54942002800D5404288422CD349
:405D800001242407A14204D2814202D209011B01F8E7E400A14204D2814202D249005B00F8E7884201D3401A1A434C08A04202D3001B5C0822438C08A04202D3001B9C0839
:405DC0002243CC08A04202D3001BDC082243002803D01B0901D00909E3E7101C6446002C00D5404210BC7047002806D003DB0020C043400801E08020000607B4024802A131
:405E00004018029003BDC046190000000029EBD003B5FFF7A7FF0EBC4243891A1847C0467047C04670B50E4B0E4D0024ED1AAD101E1CAC4204D0A300F35898470134F8E7AF
:405E400000F090F9084B094D0024ED1AAD101E1CAC4204D0A300F35898470134F8E770BD7061000070610000706100007861000010B50023934203D0CC5CC4540133F9E7DE
:405E800010BD031C8218934202D019700133FAE77047000000000000000000000000000000000000000000000000000001010101010101010101020202020203030303033D
:405EC000040404040404040404040505060606070708080809090909090A0A0A0B0C0D0D0D0E0E0E0F0F101011121212131314141515161718191A1B1C1D1E1F1F202023FD
:405F000023242425262727282829292A2A2B2B2C2C2D2D2E2E2F303132333435363738393A3B3C3D3E3F40414243444445464748494A4B4C4D4E4F505051525354555657B4
:405F400058595A5B5C5D5E5F606162636465666768696A6B6C6D6E6F70717273747576787A7C7E80828486888A8C8E90929496989A9C9EA0A2A4A6A8AAACAEB0B2B4B7BA0D
:405F8000BDC0C3C6C8CBCED0D2D5D8DBDEE1E4E7EAEDF0F3F6F9FCFF040108010C011001140118011C012001240128012C013001340138013C014001440148014C015001C6
:405FC000540159015E01630168016D01720177017C01810186018B01900195019A019F01A401A901AE01B301B801BD01C201C701CC01D101D601DB01E001E501EA01EF0151
:40600000F401F901FE01030208020D02120217021C02210226022B02300236023C02420248024E0254025A02600266026C02720278027E0284028A02900296029C02A00237
:406040000001010101010101010101010101010101010101000000000000000000000101010101020202020203030303030404040404050506060707080809090A0A0B0B6B
:406080000C0C0D0D0E0E0F0F101011121314150004320F4003330F4002400F4002410F4005420F400C430F4002600F40B880BE40D804DF0118018C01EE046F20DA80AB20A5
:4060C000EE2005106C407008C001DC031D01590161028C488D029480A408A910C604D602D802E408020111010000FF030000FF030000FF0301010000070000000000014035
:4061000004000140080001400C0001401000014008000440080104400802044008030440080404400000044000010440000204400003044000040440000102020202010144
:40614000010000000100000080000000010000000505052828280001020101018282820A0A0A0000F8B5C046F8BC08BC9E4670471514000079490000F8B5C046F8BC08BC8F
:406180009E467047ED13000098610000D00000203000000028040000000000000000E02EC05D00001800000000366E011C2D231C2C23070008010440080104400800044053
:4061C000010505050000000000000000000000000000000000000000000000000000000000000000000000000000000000000000000000000000000000000000000000008F
:40620000000000000000000000000000000000000000000000000000000000000000000000000000000000000000000000000000000000000000000000000000000000005E
:40624000000000000000000000000000000000000000000000000000000000000000000000000000000000000000000000000000000000000000000000000000000000001E
:4062800000000000000000000000000000000000000000000000000000000000000000000000000000000000000000000000000000000000000000000000000000000000DE
:4062C000000000000000000000000000000000000000000000000000000000000000000000000000000000000000000000000000000000000000000000000000000000009E
:407FC000F5111100002100000000510000000000000000000000000000000000000000000000000000000000000000000000000000000000000000000000000000000000F8
:0200000490303A
:02000000752267
:0200000490402A
:20000000FFFF3F0000000000000000000000000000000000000000000000000000000000A3
:0200000490501A
:0C0000000002041611931100043586B5AF
:0200000490600A
:0100000002FD
:00000001FF