:4000000000100020110000001D0200001D02000008B500F011FB00F003F9000010B572B680220021D2003E4800F015FF80220021D2003C4800F00FFF3B4A012313703B4AC8
:400040003B4913703B4B08221A703B4B02221A703A4B0C2019603A4B99211960394B10211960394BDB21C9011960384B31211A60374B1960374B99211A60374B0904196030
:40008000364B19780A431A70354A117881430420014311701A7816210A431A70314A80231168DB020B4313602F4B141C18782F4BC0B219782E4BC9B21A78172A05D92D4AFA
:4000C00058789978033B9342F6D12B4B192218602A4B052019602A4B1A6000F0F1FB294B05201A78284BD2B21A6000F031FD2268264B13402360264A264B1A60264B2022A5
:400100001A60264B10221A60254B802212061A60244A254B1A60254A254B1A6010BDC04600300F4000400F4019430F4059430F4000EE0300C6430F40D6430F400C0001405E
:4001400010000140000304400803044000040440080404401804044030500F4000700F4001700F4000010B40CCF1FF0FCDF1FF0FC9F1FF0FBDF1FF0F1CFF0B4020FF0B401B
:400180002CFF0B40E5F1FF0F28FF0B40FFFFFBFF0600008004010B40080202402002024008010B401700008000000240CF0000804000024010B5064C2378002B07D1054BF2
:4001C000002B02D0044800E000BF0123237010BDE800002000000000700E000008B5084B002B03D00748084900E000BF07480368002B03D0064B002B00D0984708BDC04612
:4002000000000000700E0000EC000020D00000200000000008B500F037FBFEE7FEE7000070B51048104B0138421C15D01E685C689D680022A118AA4203D0B158A15004322E
:40024000F8E7DA680D1C4C1B944202D0002410C1F9E710330138E7E700F0CEFDFFF7DAFFFEE7C046010000009810000008B500239A00032B02D80D49895800E00C490D48A5
:4002800001338150302BF3D1FFF7C8FE0A4B00221A600A4B1A68002A00D11A608023DB051A6801210A431A6008BDC046000000001D02000000000020C8000020C000002061
:4002C0000047000010B5FF231A1C0139074C89B2A14208D0047801305440054A125D5A40044B1B5DF1E71002184310BDFFFF0000740E0000740F0000044B1A680F2313404C
:40030000082BF9D0024B18607047C046080206404002064008B5094B1B78002B0DD00849084A0988138801318B4206D00649581C09681080C85CFFF7DFFF08BD94050020DD
:4003400050030020440300204C030020044B01391980044B00221A80034B18607047C04650030020440300204C030020F7B5234C0192071C0E1C201C0021FF221D1C00F099
:400380006AFDFA232370FB2363700123A3701C4B9E4205D01B4B1B78E3701B4B1B782371330AA3712B0A6771E67123726572201C002D0FD02A1C01990A3000F043FD291C11
:4003C0000A3189B2201CFFF77DFF6319020A9A72D87205E00A21FFF775FF030AA372E0720A4B08211A780A431A7072B60C35A9B2201CFFF7ABFF62B6F7BDC046040100208F
:40040000C5CC000015020020480300208805002030B5414A031C10780D2879D800F0E2FC070D141B20252C333A414B667855FA2B01D101211170394A6BE0FB2B01D102210E
:400440001170364A537065E0012B01D103211170324A93705EE004211170304AD37059E0052111702D4A137154E02D490B70062111702A4A53714DE02A490B70072111700C
:40048000264A937146E027490B7008211170234AD3713FE024490B70092111701F4A137238E021490B700B21002B00D10A2111701A4A53722EE01948011CFE314988F42919
:4004C00028D841188B720D2323E0144C211CFE314888F4281ED82018C37200234B801370124B08211A780A431A7013E00B48041CFE346188F32903D845180131AB726180F3
:40050000094BFE3041881B78994203D10A2300E00023137030BDC0468C050020520300204603002047030020170200205404002070B5084C042523682B420AD0064E0023F3
:40054000337000F025FCC0B2FFF762FF01233370256070BDC00F06409405002038B50C4B1B78012B12D10B4C0B4B22689A4201D900F04EFB094B22689A4204D9002525606A
:4005800000F018FB256023680133236038BDC046580400209005002040420F00C8550F00013808B509282AD8C901494200F01AFC0507090B0D0F1614181B154B08E0154BC3
:4005C00012E0154B0DE0154B0EE0154B00E0154BC9180878C0B21AE0134B02E0134B00E0134BC9180FE0134BC9180B7848788A780002120410431843CB781B0606E00020A1
:4006000000F082FA00210B7848780002184308BDC07F0000C17F0000C57F0000C97F0000D07F0000D17F0000D67F0000D27F0000D47F0000D87F00000C4B10B51A681023FD
:400640001A400B4B00D11A601A68802A0DD100240220211C1C60FFF7A3FFA04205D0211C0220FFF79DFFFFF72BFE10BD00030B40C0000020F8B5051C291C0320FFF790FF61
:40068000291C041C0420FFF78BFF671CFF013F18291C0320FFF784FF00240130C001261CB84209D203785A1ED2B2FD2A00D801261C19E4B20130F3E70120291CFFF770FF0B
:4006C0006442E4B20623844203D17242564176423340181CF8BD0000F0B5D3B000F0A6FA00F0A8FA00F0B4FA574800F0BFFA00F0D1FA00F0DFFA62B6544B01226420002466
:400700001A7000F00FFA0194FFF728FFFFF702FE4F4D019E01232B70002E02D0013E019600E0019C4B4B1B78012B13D1029E4A4B013602969E420FD9484E8027376000F078
:40074000E5F90020FFF796FF002805D1376000F0DDF901E000260296002C10D1404B1B78002B0CD13F4A80233F4E5370201C3F4902231470FFF7FAFD01240196C4E73C4BFF
:4007800068461A781107CE0F06740029BCDA39490978F429B8D8F0B228700820364D82431A706B189E7ADB7A8640F6180A31281CB6B2FFF787FD8642A6D1EE782F4B03960A
:4007C0002E7903981E702E4B1870AF79EB793F02FF18264BBFB29F4203D02A4B9F4204D092E71F4BFF221A708EE7291C80220A3107A800F027FB039A1A4D964212D1052EAC
:4008000010D907A9FF2000F06FF86E4600200223391C2A1C28706870FFF7A8FD0D4B367C1E7071E7301C07A9213000F05DF8124B0020DB781349EB702A1C02232E7128705F
:400840006870FFF793FD5FE73105000094050020580400201602002050C30000C00000201402002059040020A0860100C5CC00005404002017020020520300204803002042
:4008800015020020D2CC000008B50020FFF7F2FE0022904200D00622074B1868191C402801D0002A03D000230B60FFF715FF80221A6000F02BF908BDC0000020000000000A
:4008C0000230800804D0C0460138FDD1C046C046C0467047EFF3108072B6704780F310887047C046C046C046F0B50024CBB0069404900794FF2800D9A4E0A14200D1A1E0A9
:4009000008AD8022281C00F09DFA231C211C221C029498002858002802D01218014302930133202BF5D1002A05D1002900D08EE00191039102E0002001900390484F7F23FF
:4009400028AE291C80222AA82897464C736000F079FA454A454B266013602168090F0A2903D022680F23134000E000230693069F002F69D1FFF7AEFF3D4A3E4B116807971F
:400980001960069B0590002B14D13B4A04982892289A01040A43289228AA22603249374A0A602268120F0A2A03D02E4B1A680F2313400693069F002F38D1019A002A35D0A3
:4009C000391C8022281C00F046FA0298039A08A983005A50224B2AA8289380227F23736000F030FA214820492660086023681B0F0A2B03D01B4B1F680F231F400697069B13
:400A0000002B13D11E4A04982892289A01040A43289215491B4A26600A602268120F0A2A03D0104B1A680F2313400693079B002B04D1104A0E481268026007930598FFF760
:400A40004DFF01E00423069306984BB0F0BD02998B00E85801210390EA5001916EE7C046B6D7000008000040040000400400008008010B4004020020B6D8000005000080D7
:400A8000B6D90000060000801F2800D901BE034A80008318186819607047C0464000002038B5041C0D1E032D00D901BE1F2C00D901BEFFF70FFFA308084A9B009B1803226D
:400AC0001440944019680634A2409143A5400C1C2C431C60FFF702FF38BDC04600E400E01F23184001238340181C014B1860704700E100E01F23184001238340181C014BBD
:400B00001860704780E100E001BE7047034B04491A6892B20A431A607047C0460CED00E00400FA0510B5041C8022074B1202944205D91868FFF7C4FE044BE418F4E758684F
:400B40006043FFF7BDFE10BDD40000200080FFFF08B5034B1B7A5843FFF7B2FE08BDC046D40000200C4B8022D2041A601A680B491A6000220A6019681960094B0C21196029
:400B8000084B1A60084B31221A60084BFA221A60074B7D221A6070470001054008010540240105403801054028010540140105400C01054008B5FFF78DFE044B01211A6876
:400BC0008A431A60FFF78AFE08BDC0460000054038B50C1C051CFFF77DFE034BA5401D60FFF77CFE38BDC0460800054010B5FFF771FE064B01241A6822431A60FFF76EFEAE
:400C0000201C1821FFF7E4FF10BDC0460000054010B5054C2378002B03D1FFF7A3FF01232370FFF7E3FF10BD0802002008B500F059F808BD08B5054B8022196812060A4328
:400C40001A600A20FFF74CFF08BDC0460000064010B5054C2378002B03D100F043F801232370FFF7E7FF10BD0C020020014B58607047C0460C020020014B18687047C0469D
:400C800040030640024B18680F2318407047C04608030640054B8022196852020A431A601968034A0A401A607047C04604030640FFFFFEFF054B8022196852020A431A6093
:400CC0001968034A0A401A607047C04604020640FFFFFEFF024B002218681A607047C046C80F0640184A194B10B51A60184B00241C60184B01221A601749184B07200B60BE
:400D00001749086017490A200C6017490A60174A1360174B1C60FFF7EDFE0A200321FFF7BFFE14490A20FFF7AFFE134B04221C60124B1C60124B1C60124B1C60124B1A600B
:400D4000124B1C6010BDC0460B00000200000640400006404800064000030640070000800403064010030640440006400002064004020640D10D0000880E0640C80E0640F6
:400D8000480F0640080F0640C80F0640880F064010B5FFF79FFF041CFFF774FF094B002803D01C60FFF768FF02E0074A10681C60064AD82311689B0013600B401B02184379
:400DC00010BDC046C80F064040030640C00F064008B5034B1B68002B00D0984708BDC0461002002002B4714649084900095C49008E4402BC7047C04670B50E4B0E4D002401
:400E0000ED1AAD101E1CAC4204D0A300F35898470134F8E700F02EF9084B094D0024ED1AAD101E1CAC4204D0A300F35898470134F8E770BD801000008010000080100000AF
:400E40008810000010B50023934203D0CC5CC4540133F9E710BD031C8218934202D019700133FAE770470000C0100000810000000000000000C1814001C0804101C080419D
:400E800000C1814001C0804100C1814000C1814001C0804101C0804100C1814000C1814001C0804100C1814001C0804101C0804100C1814001C0804100C1814000C1814012
:400EC00001C0804100C1814001C0804101C0804100C1814000C1814001C0804101C0804100C1814001C0804100C1814000C1814001C0804101C0804100C1814000C18140D2
:400F000001C0804100C1814001C0804101C0804100C1814000C1814001C0804101C0804100C1814001C0804100C1814000C1814001C0804100C1814001C0804101C0804191
:400F400000C1814001C0804100C1814000C1814001C0804101C0804100C1814000C1814001C0804100C1814001C0804101C0804100C1814000C0C101C30302C2C60607C731
:400F800005C5C404CC0C0DCD0FCFCE0E0ACACB0BC90908C8D81819D91BDBDA1A1EDEDF1FDD1D1CDC14D4D515D71716D6D21213D311D1D010F03031F133F3F23236F6F73711
:400FC000F53534F43CFCFD3DFF3F3EFEFA3A3BFB39F9F83828E8E929EB2B2AEAEE2E2FEF2DEDEC2CE42425E527E7E62622E2E323E12120E0A06061A163A3A26266A6A767D1
:40100000A56564A46CACAD6DAF6F6EAEAA6A6BAB69A9A86878B8B979BB7B7ABABE7E7FBF7DBDBC7CB47475B577B7B67672B2B373B17170B050909151935352929656579790
:40104000559594549C5C5D9D5F9F9E5E5A9A9B5B99595898884849894B8B8A4A4E8E8F4F8D4D4C8C44848545874746868242438341818040F8B5C046F8BC08BC9E46704730
:40108000DD0100006D020000F8B5C046F8BC08BC9E467047B5010000A8100000D000002018000000B0040000000000000000E02EC05D00001800000000366E01000000000B
:4010C00000000000000000000000000000000000000000000000000000000000000000000000000000000000000000000000000000000000000000000000000000000000F0
:4011000000000000000000000000000000000000000000000000000000000000000000000000000000000000000000000000000000000000000000000000000000000000AF
:40114000000000000000000000000000000000000000000000000000000000000000000000000000000000000000000000000000000000000000000000000000000000006F
:40118000000000000000000000000000000000000000000000000000000000000000000000000000000000000000000000000000000000000000000000000000000000002F
:407FC0000000000000000000000000000000000000000000010000000000000000000000000000000000000000000000000000000000000000000000000000000000000080
:0200000490303A
:02000000828FED
:0200000490402A
:20000000FFFF3F0000000000000000000000000000000000000000000000000000000000A3
:0200000490501A
:0C0000000002041611931100041B94224E
:0200000490600A
:0100000002FD
:00000001FF